{"contracts/DataCureAccess.sol":{"DataCureAccess":{"abi":[{"inputs":[{"internalType":"contract IDataCure","name":"_dataCureAddr","type":"address"}],"stateMutability":"nonpayable","type":"constructor"},{"anonymous":false,"inputs":[{"indexed":false,"internalType":"uint256","name":"_userToken","type":"uint256"},{"indexed":true,"internalType":"string","name":"_cid","type":"string"}],"name":"GrandAccess","type":"event"},{"anonymous":false,"inputs":[{"indexed":false,"internalType":"address","name":"_dataCureAddr","type":"address"}],"name":"UpdateDataCureAddress","type":"event"},{"anonymous":false,"inputs":[{"indexed":false,"internalType":"uint256","name":"_userToken","type":"uint256"},{"indexed":true,"internalType":"string","name":"_cid","type":"string"},{"indexed":false,"internalType":"bool","name":"_listForSale","type":"bool"}],"name":"UploadData","type":"event"},{"inputs":[],"name":"_dataCure","outputs":[{"internalType":"contract IDataCure","name":"","type":"address"}],"stateMutability":"view","type":"function"},{"inputs":[{"internalType":"string","name":"","type":"string"}],"name":"accessListByCid","outputs":[{"internalType":"uint256","name":"ownerToken","type":"uint256"},{"internalType":"bool","name":"listForSale","type":"bool"}],"stateMutability":"view","type":"function"},{"inputs":[{"internalType":"uint256","name":"_userToken","type":"uint256"},{"internalType":"string","name":"_cid","type":"string"}],"name":"grandAccess","outputs":[],"stateMutability":"nonpayable","type":"function"},{"inputs":[{"internalType":"address","name":"_dataCureAddr","type":"address"}],"name":"updateDataCureFactory","outputs":[],"stateMutability":"nonpayable","type":"function"},{"inputs":[{"internalType":"uint256","name":"_userToken","type":"uint256"},{"internalType":"string","name":"_cid","type":"string"},{"internalType":"bool","name":"_listForSale","type":"bool"}],"name":"uploadData","outputs":[],"stateMutability":"nonpayable","type":"function"},{"inputs":[{"internalType":"uint256","name":"_userToken","type":"uint256"},{"internalType":"string","name":"_cid","type":"string"}],"name":"verifyAccess","outputs":[{"internalType":"bool","name":"","type":"bool"}],"stateMutability":"view","type":"function"}],"evm":{"bytecode":{"linkReferences":{},"object":"60806040523480156200001157600080fd5b50604051620016d7380380620016d78339818101604052810190620000379190620000fc565b806000806101000a81548173ffffffffffffffffffffffffffffffffffffffff021916908373ffffffffffffffffffffffffffffffffffffffff160217905550506200012e565b600080fd5b600073ffffffffffffffffffffffffffffffffffffffff82169050919050565b6000620000b08262000083565b9050919050565b6000620000c482620000a3565b9050919050565b620000d681620000b7565b8114620000e257600080fd5b50565b600081519050620000f681620000cb565b92915050565b6000602082840312156200011557620001146200007e565b5b60006200012584828501620000e5565b91505092915050565b611599806200013e6000396000f3fe608060405234801561001057600080fd5b50600436106100625760003560e01c8063281cac0514610067578063295f036b14610083578063428e9cc61461009f5780637cf63464146100bd57806386240f81146100ed57806391c602a914610109575b600080fd5b610081600480360381019061007c9190610dab565b61013a565b005b61009d60048036038101906100989190610e1a565b610682565b005b6100a76108c3565b6040516100b49190610ef5565b60405180910390f35b6100d760048036038101906100d29190610e1a565b6108e7565b6040516100e49190610f1f565b60405180910390f35b61010760048036038101906101029190610f78565b610b1a565b005b610123600480360381019061011e9190610fa5565b610b94565b604051610131929190610ffd565b60405180910390f35b6001600381111561014e5761014d611026565b5b60008054906101000a900473ffffffffffffffffffffffffffffffffffffffff1673ffffffffffffffffffffffffffffffffffffffff166385af4777856040518263ffffffff1660e01b81526004016101a79190611055565b606060405180830381865afa1580156101c4573d6000803e3d6000fd5b505050506040513d601f19601f820116820180604052508101906101e89190611149565b6040015160038111156101fe576101fd611026565b5b14806102cb57506002600381111561021957610218611026565b5b60008054906101000a900473ffffffffffffffffffffffffffffffffffffffff1673ffffffffffffffffffffffffffffffffffffffff166385af4777856040518263ffffffff1660e01b81526004016102729190611055565b606060405180830381865afa15801561028f573d6000803e3d6000fd5b505050506040513d601f19601f820116820180604052508101906102b39190611149565b6040015160038111156102c9576102c8611026565b5b145b61030a576040517f08c379a0000000000000000000000000000000000000000000000000000000008152600401610301906111f9565b60405180910390fd5b6001600381111561031e5761031d611026565b5b60008054906101000a900473ffffffffffffffffffffffffffffffffffffffff1673ffffffffffffffffffffffffffffffffffffffff166385af4777856040518263ffffffff1660e01b81526004016103779190611055565b606060405180830381865afa158015610394573d6000803e3d6000fd5b505050506040513d601f19601f820116820180604052508101906103b89190611149565b6040015160038111156103ce576103cd611026565b5b036104e2576103db610bdb565b73ffffffffffffffffffffffffffffffffffffffff1660008054906101000a900473ffffffffffffffffffffffffffffffffffffffff1673ffffffffffffffffffffffffffffffffffffffff16636352211e856040518263ffffffff1660e01b815260040161044a9190611055565b602060405180830381865afa158015610467573d6000803e3d6000fd5b505050506040513d601f19601f8201168201806040525081019061048b919061122e565b73ffffffffffffffffffffffffffffffffffffffff16146104e1576040517f08c379a00000000000000000000000000000000000000000000000000000000081526004016104d8906112a7565b60405180910390fd5b5b60006001836040516104f49190611338565b90815260200160405180910390206000015414610546576040517f08c379a000000000000000000000000000000000000000000000000000000000815260040161053d9061139b565b60405180910390fd5b826001836040516105579190611338565b90815260200160405180910390206000018190555060018260405161057c9190611338565b9081526020016040518091039020600101610595610bdb565b9080600181540180825580915050600190039060005260206000200160009091909190916101000a81548173ffffffffffffffffffffffffffffffffffffffff021916908373ffffffffffffffffffffffffffffffffffffffff160217905550806001836040516106069190611338565b908152602001604051809103902060020160006101000a81548160ff0219169083151502179055508160405161063c9190611338565b60405180910390207f93b6ada0fb90de98696b6fbe5cb05d3a447aa37f96f6417bfb8b0905d4a7cb628483604051610675929190610ffd565b60405180910390a2505050565b6001600381111561069657610695611026565b5b60008054906101000a900473ffffffffffffffffffffffffffffffffffffffff1673ffffffffffffffffffffffffffffffffffffffff166385af4777846040518263ffffffff1660e01b81526004016106ef9190611055565b606060405180830381865afa15801561070c573d6000803e3d6000fd5b505050506040513d601f19601f820116820180604052508101906107309190611149565b60400151600381111561074657610745611026565b5b14610786576040517f08c379a000000000000000000000000000000000000000000000000000000000815260040161077d906111f9565b60405180910390fd5b816001826040516107979190611338565b908152602001604051809103902060000154146107e9576040517f08c379a00000000000000000000000000000000000000000000000000000000081526004016107e090611407565b60405180910390fd5b6001816040516107f99190611338565b9081526020016040518091039020600101610812610bdb565b9080600181540180825580915050600190039060005260206000200160009091909190916101000a81548173ffffffffffffffffffffffffffffffffffffffff021916908373ffffffffffffffffffffffffffffffffffffffff160217905550806040516108809190611338565b60405180910390207fe0303228079b12d90435d7e3843964ec0ae9400697f7f8ad4728f9aec488ec64836040516108b79190611055565b60405180910390a25050565b60008054906101000a900473ffffffffffffffffffffffffffffffffffffffff1681565b60008060008054906101000a900473ffffffffffffffffffffffffffffffffffffffff1673ffffffffffffffffffffffffffffffffffffffff166385af4777856040518263ffffffff1660e01b81526004016109439190611055565b606060405180830381865afa158015610960573d6000803e3d6000fd5b505050506040513d601f19601f820116820180604052508101906109849190611149565b60000151036109c8576040517f08c379a00000000000000000000000000000000000000000000000000000000081526004016109bf906111f9565b60405180910390fd5b826001836040516109d99190611338565b90815260200160405180910390206000015414610a2b576040517f08c379a0000000000000000000000000000000000000000000000000000000008152600401610a2290611473565b60405180910390fd5b60005b600183604051610a3e9190611338565b908152602001604051809103902060010180549050811015610b0e57610a62610bdb565b73ffffffffffffffffffffffffffffffffffffffff16600184604051610a889190611338565b90815260200160405180910390206001018281548110610aab57610aaa611493565b5b9060005260206000200160009054906101000a900473ffffffffffffffffffffffffffffffffffffffff1673ffffffffffffffffffffffffffffffffffffffff1603610afb576001915050610b14565b8080610b06906114f1565b915050610a2e565b50600090505b92915050565b806000806101000a81548173ffffffffffffffffffffffffffffffffffffffff021916908373ffffffffffffffffffffffffffffffffffffffff1602179055507f88e5ee09a3a55f83d04e49bcb2c95bef29ec12bd1b1e6e237202d6b6851966f881604051610b899190611548565b60405180910390a150565b6001818051602081018201805184825260208301602085012081835280955050505050506000915090508060000154908060020160009054906101000a900460ff16905082565b600033905090565b6000604051905090565b600080fd5b600080fd5b6000819050919050565b610c0a81610bf7565b8114610c1557600080fd5b50565b600081359050610c2781610c01565b92915050565b600080fd5b600080fd5b6000601f19601f8301169050919050565b7f4e487b7100000000000000000000000000000000000000000000000000000000600052604160045260246000fd5b610c8082610c37565b810181811067ffffffffffffffff82111715610c9f57610c9e610c48565b5b80604052505050565b6000610cb2610be3565b9050610cbe8282610c77565b919050565b600067ffffffffffffffff821115610cde57610cdd610c48565b5b610ce782610c37565b9050602081019050919050565b82818337600083830152505050565b6000610d16610d1184610cc3565b610ca8565b905082815260208101848484011115610d3257610d31610c32565b5b610d3d848285610cf4565b509392505050565b600082601f830112610d5a57610d59610c2d565b5b8135610d6a848260208601610d03565b91505092915050565b60008115159050919050565b610d8881610d73565b8114610d9357600080fd5b50565b600081359050610da581610d7f565b92915050565b600080600060608486031215610dc457610dc3610bed565b5b6000610dd286828701610c18565b935050602084013567ffffffffffffffff811115610df357610df2610bf2565b5b610dff86828701610d45565b9250506040610e1086828701610d96565b9150509250925092565b60008060408385031215610e3157610e30610bed565b5b6000610e3f85828601610c18565b925050602083013567ffffffffffffffff811115610e6057610e5f610bf2565b5b610e6c85828601610d45565b9150509250929050565b600073ffffffffffffffffffffffffffffffffffffffff82169050919050565b6000819050919050565b6000610ebb610eb6610eb184610e76565b610e96565b610e76565b9050919050565b6000610ecd82610ea0565b9050919050565b6000610edf82610ec2565b9050919050565b610eef81610ed4565b82525050565b6000602082019050610f0a6000830184610ee6565b92915050565b610f1981610d73565b82525050565b6000602082019050610f346000830184610f10565b92915050565b6000610f4582610e76565b9050919050565b610f5581610f3a565b8114610f6057600080fd5b50565b600081359050610f7281610f4c565b92915050565b600060208284031215610f8e57610f8d610bed565b5b6000610f9c84828501610f63565b91505092915050565b600060208284031215610fbb57610fba610bed565b5b600082013567ffffffffffffffff811115610fd957610fd8610bf2565b5b610fe584828501610d45565b91505092915050565b610ff781610bf7565b82525050565b60006040820190506110126000830185610fee565b61101f6020830184610f10565b9392505050565b7f4e487b7100000000000000000000000000000000000000000000000000000000600052602160045260246000fd5b600060208201905061106a6000830184610fee565b92915050565b600080fd5b60008151905061108481610c01565b92915050565b6000819050919050565b61109d8161108a565b81146110a857600080fd5b50565b6000815190506110ba81611094565b92915050565b600481106110cd57600080fd5b50565b6000815190506110df816110c0565b92915050565b6000606082840312156110fb576110fa611070565b5b6111056060610ca8565b9050600061111584828501611075565b6000830152506020611129848285016110ab565b602083015250604061113d848285016110d0565b60408301525092915050565b60006060828403121561115f5761115e610bed565b5b600061116d848285016110e5565b91505092915050565b600082825260208201905092915050565b7f4f6e6c7920612072656769737465726564206d656d626572206861732074686560008201527f2061636365737300000000000000000000000000000000000000000000000000602082015250565b60006111e3602783611176565b91506111ee82611187565b604082019050919050565b60006020820190508181036000830152611212816111d6565b9050919050565b60008151905061122881610f4c565b92915050565b60006020828403121561124457611243610bed565b5b600061125284828501611219565b91505092915050565b7f4f6e6c7920746865206f776e65722063616e2075706c6f616420646174610000600082015250565b6000611291601e83611176565b915061129c8261125b565b602082019050919050565b600060208201905081810360008301526112c081611284565b9050919050565b600081519050919050565b600081905092915050565b60005b838110156112fb5780820151818401526020810190506112e0565b60008484015250505050565b6000611312826112c7565b61131c81856112d2565b935061132c8185602086016112dd565b80840191505092915050565b60006113448284611307565b915081905092915050565b7f4461746120697320616c72656164792075706c6f616465640000000000000000600082015250565b6000611385601883611176565b91506113908261134f565b602082019050919050565b600060208201905081810360008301526113b481611378565b9050919050565b7f4f6e6c7420746865206f776e65722063616e206772616e742061636365737300600082015250565b60006113f1601f83611176565b91506113fc826113bb565b602082019050919050565b60006020820190508181036000830152611420816113e4565b9050919050565b7f4f6e6c7920746865206f776e65722063616e2076657269667920616363657373600082015250565b600061145d602083611176565b915061146882611427565b602082019050919050565b6000602082019050818103600083015261148c81611450565b9050919050565b7f4e487b7100000000000000000000000000000000000000000000000000000000600052603260045260246000fd5b7f4e487b7100000000000000000000000000000000000000000000000000000000600052601160045260246000fd5b60006114fc82610bf7565b91507fffffffffffffffffffffffffffffffffffffffffffffffffffffffffffffffff820361152e5761152d6114c2565b5b600182019050919050565b61154281610f3a565b82525050565b600060208201905061155d6000830184611539565b9291505056fea2646970667358221220542aa9b4c1f3519c5cf62005f9101eda079130202fad805329ea34ee162f008d64736f6c63430008140033","opcodes":"PUSH1 0x80 PUSH1 0x40 MSTORE CALLVALUE DUP1 ISZERO PUSH3 0x11 JUMPI PUSH1 0x0 DUP1 REVERT JUMPDEST POP PUSH1 0x40 MLOAD PUSH3 0x16D7 CODESIZE SUB DUP1 PUSH3 0x16D7 DUP4 CODECOPY DUP2 DUP2 ADD PUSH1 0x40 MSTORE DUP2 ADD SWAP1 PUSH3 0x37 SWAP2 SWAP1 PUSH3 0xFC JUMP JUMPDEST DUP1 PUSH1 0x0 DUP1 PUSH2 0x100 EXP DUP2 SLOAD DUP2 PUSH20 0xFFFFFFFFFFFFFFFFFFFFFFFFFFFFFFFFFFFFFFFF MUL NOT AND SWAP1 DUP4 PUSH20 0xFFFFFFFFFFFFFFFFFFFFFFFFFFFFFFFFFFFFFFFF AND MUL OR SWAP1 SSTORE POP POP PUSH3 0x12E JUMP JUMPDEST PUSH1 0x0 DUP1 REVERT JUMPDEST PUSH1 0x0 PUSH20 0xFFFFFFFFFFFFFFFFFFFFFFFFFFFFFFFFFFFFFFFF DUP3 AND SWAP1 POP SWAP2 SWAP1 POP JUMP JUMPDEST PUSH1 0x0 PUSH3 0xB0 DUP3 PUSH3 0x83 JUMP JUMPDEST SWAP1 POP SWAP2 SWAP1 POP JUMP JUMPDEST PUSH1 0x0 PUSH3 0xC4 DUP3 PUSH3 0xA3 JUMP JUMPDEST SWAP1 POP SWAP2 SWAP1 POP JUMP JUMPDEST PUSH3 0xD6 DUP2 PUSH3 0xB7 JUMP JUMPDEST DUP2 EQ PUSH3 0xE2 JUMPI PUSH1 0x0 DUP1 REVERT JUMPDEST POP JUMP JUMPDEST PUSH1 0x0 DUP2 MLOAD SWAP1 POP PUSH3 0xF6 DUP2 PUSH3 0xCB JUMP JUMPDEST SWAP3 SWAP2 POP POP JUMP JUMPDEST PUSH1 0x0 PUSH1 0x20 DUP3 DUP5 SUB SLT ISZERO PUSH3 0x115 JUMPI PUSH3 0x114 PUSH3 0x7E JUMP JUMPDEST JUMPDEST PUSH1 0x0 PUSH3 0x125 DUP5 DUP3 DUP6 ADD PUSH3 0xE5 JUMP JUMPDEST SWAP2 POP POP SWAP3 SWAP2 POP POP JUMP JUMPDEST PUSH2 0x1599 DUP1 PUSH3 0x13E PUSH1 0x0 CODECOPY PUSH1 0x0 RETURN INVALID PUSH1 0x80 PUSH1 0x40 MSTORE CALLVALUE DUP1 ISZERO PUSH2 0x10 JUMPI PUSH1 0x0 DUP1 REVERT JUMPDEST POP PUSH1 0x4 CALLDATASIZE LT PUSH2 0x62 JUMPI PUSH1 0x0 CALLDATALOAD PUSH1 0xE0 SHR DUP1 PUSH4 0x281CAC05 EQ PUSH2 0x67 JUMPI DUP1 PUSH4 0x295F036B EQ PUSH2 0x83 JUMPI DUP1 PUSH4 0x428E9CC6 EQ PUSH2 0x9F JUMPI DUP1 PUSH4 0x7CF63464 EQ PUSH2 0xBD JUMPI DUP1 PUSH4 0x86240F81 EQ PUSH2 0xED JUMPI DUP1 PUSH4 0x91C602A9 EQ PUSH2 0x109 JUMPI JUMPDEST PUSH1 0x0 DUP1 REVERT JUMPDEST PUSH2 0x81 PUSH1 0x4 DUP1 CALLDATASIZE SUB DUP2 ADD SWAP1 PUSH2 0x7C SWAP2 SWAP1 PUSH2 0xDAB JUMP JUMPDEST PUSH2 0x13A JUMP JUMPDEST STOP JUMPDEST PUSH2 0x9D PUSH1 0x4 DUP1 CALLDATASIZE SUB DUP2 ADD SWAP1 PUSH2 0x98 SWAP2 SWAP1 PUSH2 0xE1A JUMP JUMPDEST PUSH2 0x682 JUMP JUMPDEST STOP JUMPDEST PUSH2 0xA7 PUSH2 0x8C3 JUMP JUMPDEST PUSH1 0x40 MLOAD PUSH2 0xB4 SWAP2 SWAP1 PUSH2 0xEF5 JUMP JUMPDEST PUSH1 0x40 MLOAD DUP1 SWAP2 SUB SWAP1 RETURN JUMPDEST PUSH2 0xD7 PUSH1 0x4 DUP1 CALLDATASIZE SUB DUP2 ADD SWAP1 PUSH2 0xD2 SWAP2 SWAP1 PUSH2 0xE1A JUMP JUMPDEST PUSH2 0x8E7 JUMP JUMPDEST PUSH1 0x40 MLOAD PUSH2 0xE4 SWAP2 SWAP1 PUSH2 0xF1F JUMP JUMPDEST PUSH1 0x40 MLOAD DUP1 SWAP2 SUB SWAP1 RETURN JUMPDEST PUSH2 0x107 PUSH1 0x4 DUP1 CALLDATASIZE SUB DUP2 ADD SWAP1 PUSH2 0x102 SWAP2 SWAP1 PUSH2 0xF78 JUMP JUMPDEST PUSH2 0xB1A JUMP JUMPDEST STOP JUMPDEST PUSH2 0x123 PUSH1 0x4 DUP1 CALLDATASIZE SUB DUP2 ADD SWAP1 PUSH2 0x11E SWAP2 SWAP1 PUSH2 0xFA5 JUMP JUMPDEST PUSH2 0xB94 JUMP JUMPDEST PUSH1 0x40 MLOAD PUSH2 0x131 SWAP3 SWAP2 SWAP1 PUSH2 0xFFD JUMP JUMPDEST PUSH1 0x40 MLOAD DUP1 SWAP2 SUB SWAP1 RETURN JUMPDEST PUSH1 0x1 PUSH1 0x3 DUP2 GT ISZERO PUSH2 0x14E JUMPI PUSH2 0x14D PUSH2 0x1026 JUMP JUMPDEST JUMPDEST PUSH1 0x0 DUP1 SLOAD SWAP1 PUSH2 0x100 EXP SWAP1 DIV PUSH20 0xFFFFFFFFFFFFFFFFFFFFFFFFFFFFFFFFFFFFFFFF AND PUSH20 0xFFFFFFFFFFFFFFFFFFFFFFFFFFFFFFFFFFFFFFFF AND PUSH4 0x85AF4777 DUP6 PUSH1 0x40 MLOAD DUP3 PUSH4 0xFFFFFFFF AND PUSH1 0xE0 SHL DUP2 MSTORE PUSH1 0x4 ADD PUSH2 0x1A7 SWAP2 SWAP1 PUSH2 0x1055 JUMP JUMPDEST PUSH1 0x60 PUSH1 0x40 MLOAD DUP1 DUP4 SUB DUP2 DUP7 GAS STATICCALL ISZERO DUP1 ISZERO PUSH2 0x1C4 JUMPI RETURNDATASIZE PUSH1 0x0 DUP1 RETURNDATACOPY RETURNDATASIZE PUSH1 0x0 REVERT JUMPDEST POP POP POP POP PUSH1 0x40 MLOAD RETURNDATASIZE PUSH1 0x1F NOT PUSH1 0x1F DUP3 ADD AND DUP3 ADD DUP1 PUSH1 0x40 MSTORE POP DUP2 ADD SWAP1 PUSH2 0x1E8 SWAP2 SWAP1 PUSH2 0x1149 JUMP JUMPDEST PUSH1 0x40 ADD MLOAD PUSH1 0x3 DUP2 GT ISZERO PUSH2 0x1FE JUMPI PUSH2 0x1FD PUSH2 0x1026 JUMP JUMPDEST JUMPDEST EQ DUP1 PUSH2 0x2CB JUMPI POP PUSH1 0x2 PUSH1 0x3 DUP2 GT ISZERO PUSH2 0x219 JUMPI PUSH2 0x218 PUSH2 0x1026 JUMP JUMPDEST JUMPDEST PUSH1 0x0 DUP1 SLOAD SWAP1 PUSH2 0x100 EXP SWAP1 DIV PUSH20 0xFFFFFFFFFFFFFFFFFFFFFFFFFFFFFFFFFFFFFFFF AND PUSH20 0xFFFFFFFFFFFFFFFFFFFFFFFFFFFFFFFFFFFFFFFF AND PUSH4 0x85AF4777 DUP6 PUSH1 0x40 MLOAD DUP3 PUSH4 0xFFFFFFFF AND PUSH1 0xE0 SHL DUP2 MSTORE PUSH1 0x4 ADD PUSH2 0x272 SWAP2 SWAP1 PUSH2 0x1055 JUMP JUMPDEST PUSH1 0x60 PUSH1 0x40 MLOAD DUP1 DUP4 SUB DUP2 DUP7 GAS STATICCALL ISZERO DUP1 ISZERO PUSH2 0x28F JUMPI RETURNDATASIZE PUSH1 0x0 DUP1 RETURNDATACOPY RETURNDATASIZE PUSH1 0x0 REVERT JUMPDEST POP POP POP POP PUSH1 0x40 MLOAD RETURNDATASIZE PUSH1 0x1F NOT PUSH1 0x1F DUP3 ADD AND DUP3 ADD DUP1 PUSH1 0x40 MSTORE POP DUP2 ADD SWAP1 PUSH2 0x2B3 SWAP2 SWAP1 PUSH2 0x1149 JUMP JUMPDEST PUSH1 0x40 ADD MLOAD PUSH1 0x3 DUP2 GT ISZERO PUSH2 0x2C9 JUMPI PUSH2 0x2C8 PUSH2 0x1026 JUMP JUMPDEST JUMPDEST EQ JUMPDEST PUSH2 0x30A JUMPI PUSH1 0x40 MLOAD PUSH32 0x8C379A000000000000000000000000000000000000000000000000000000000 DUP2 MSTORE PUSH1 0x4 ADD PUSH2 0x301 SWAP1 PUSH2 0x11F9 JUMP JUMPDEST PUSH1 0x40 MLOAD DUP1 SWAP2 SUB SWAP1 REVERT JUMPDEST PUSH1 0x1 PUSH1 0x3 DUP2 GT ISZERO PUSH2 0x31E JUMPI PUSH2 0x31D PUSH2 0x1026 JUMP JUMPDEST JUMPDEST PUSH1 0x0 DUP1 SLOAD SWAP1 PUSH2 0x100 EXP SWAP1 DIV PUSH20 0xFFFFFFFFFFFFFFFFFFFFFFFFFFFFFFFFFFFFFFFF AND PUSH20 0xFFFFFFFFFFFFFFFFFFFFFFFFFFFFFFFFFFFFFFFF AND PUSH4 0x85AF4777 DUP6 PUSH1 0x40 MLOAD DUP3 PUSH4 0xFFFFFFFF AND PUSH1 0xE0 SHL DUP2 MSTORE PUSH1 0x4 ADD PUSH2 0x377 SWAP2 SWAP1 PUSH2 0x1055 JUMP JUMPDEST PUSH1 0x60 PUSH1 0x40 MLOAD DUP1 DUP4 SUB DUP2 DUP7 GAS STATICCALL ISZERO DUP1 ISZERO PUSH2 0x394 JUMPI RETURNDATASIZE PUSH1 0x0 DUP1 RETURNDATACOPY RETURNDATASIZE PUSH1 0x0 REVERT JUMPDEST POP POP POP POP PUSH1 0x40 MLOAD RETURNDATASIZE PUSH1 0x1F NOT PUSH1 0x1F DUP3 ADD AND DUP3 ADD DUP1 PUSH1 0x40 MSTORE POP DUP2 ADD SWAP1 PUSH2 0x3B8 SWAP2 SWAP1 PUSH2 0x1149 JUMP JUMPDEST PUSH1 0x40 ADD MLOAD PUSH1 0x3 DUP2 GT ISZERO PUSH2 0x3CE JUMPI PUSH2 0x3CD PUSH2 0x1026 JUMP JUMPDEST JUMPDEST SUB PUSH2 0x4E2 JUMPI PUSH2 0x3DB PUSH2 0xBDB JUMP JUMPDEST PUSH20 0xFFFFFFFFFFFFFFFFFFFFFFFFFFFFFFFFFFFFFFFF AND PUSH1 0x0 DUP1 SLOAD SWAP1 PUSH2 0x100 EXP SWAP1 DIV PUSH20 0xFFFFFFFFFFFFFFFFFFFFFFFFFFFFFFFFFFFFFFFF AND PUSH20 0xFFFFFFFFFFFFFFFFFFFFFFFFFFFFFFFFFFFFFFFF AND PUSH4 0x6352211E DUP6 PUSH1 0x40 MLOAD DUP3 PUSH4 0xFFFFFFFF AND PUSH1 0xE0 SHL DUP2 MSTORE PUSH1 0x4 ADD PUSH2 0x44A SWAP2 SWAP1 PUSH2 0x1055 JUMP JUMPDEST PUSH1 0x20 PUSH1 0x40 MLOAD DUP1 DUP4 SUB DUP2 DUP7 GAS STATICCALL ISZERO DUP1 ISZERO PUSH2 0x467 JUMPI RETURNDATASIZE PUSH1 0x0 DUP1 RETURNDATACOPY RETURNDATASIZE PUSH1 0x0 REVERT JUMPDEST POP POP POP POP PUSH1 0x40 MLOAD RETURNDATASIZE PUSH1 0x1F NOT PUSH1 0x1F DUP3 ADD AND DUP3 ADD DUP1 PUSH1 0x40 MSTORE POP DUP2 ADD SWAP1 PUSH2 0x48B SWAP2 SWAP1 PUSH2 0x122E JUMP JUMPDEST PUSH20 0xFFFFFFFFFFFFFFFFFFFFFFFFFFFFFFFFFFFFFFFF AND EQ PUSH2 0x4E1 JUMPI PUSH1 0x40 MLOAD PUSH32 0x8C379A000000000000000000000000000000000000000000000000000000000 DUP2 MSTORE PUSH1 0x4 ADD PUSH2 0x4D8 SWAP1 PUSH2 0x12A7 JUMP JUMPDEST PUSH1 0x40 MLOAD DUP1 SWAP2 SUB SWAP1 REVERT JUMPDEST JUMPDEST PUSH1 0x0 PUSH1 0x1 DUP4 PUSH1 0x40 MLOAD PUSH2 0x4F4 SWAP2 SWAP1 PUSH2 0x1338 JUMP JUMPDEST SWAP1 DUP2 MSTORE PUSH1 0x20 ADD PUSH1 0x40 MLOAD DUP1 SWAP2 SUB SWAP1 KECCAK256 PUSH1 0x0 ADD SLOAD EQ PUSH2 0x546 JUMPI PUSH1 0x40 MLOAD PUSH32 0x8C379A000000000000000000000000000000000000000000000000000000000 DUP2 MSTORE PUSH1 0x4 ADD PUSH2 0x53D SWAP1 PUSH2 0x139B JUMP JUMPDEST PUSH1 0x40 MLOAD DUP1 SWAP2 SUB SWAP1 REVERT JUMPDEST DUP3 PUSH1 0x1 DUP4 PUSH1 0x40 MLOAD PUSH2 0x557 SWAP2 SWAP1 PUSH2 0x1338 JUMP JUMPDEST SWAP1 DUP2 MSTORE PUSH1 0x20 ADD PUSH1 0x40 MLOAD DUP1 SWAP2 SUB SWAP1 KECCAK256 PUSH1 0x0 ADD DUP2 SWAP1 SSTORE POP PUSH1 0x1 DUP3 PUSH1 0x40 MLOAD PUSH2 0x57C SWAP2 SWAP1 PUSH2 0x1338 JUMP JUMPDEST SWAP1 DUP2 MSTORE PUSH1 0x20 ADD PUSH1 0x40 MLOAD DUP1 SWAP2 SUB SWAP1 KECCAK256 PUSH1 0x1 ADD PUSH2 0x595 PUSH2 0xBDB JUMP JUMPDEST SWAP1 DUP1 PUSH1 0x1 DUP2 SLOAD ADD DUP1 DUP3 SSTORE DUP1 SWAP2 POP POP PUSH1 0x1 SWAP1 SUB SWAP1 PUSH1 0x0 MSTORE PUSH1 0x20 PUSH1 0x0 KECCAK256 ADD PUSH1 0x0 SWAP1 SWAP2 SWAP1 SWAP2 SWAP1 SWAP2 PUSH2 0x100 EXP DUP2 SLOAD DUP2 PUSH20 0xFFFFFFFFFFFFFFFFFFFFFFFFFFFFFFFFFFFFFFFF MUL NOT AND SWAP1 DUP4 PUSH20 0xFFFFFFFFFFFFFFFFFFFFFFFFFFFFFFFFFFFFFFFF AND MUL OR SWAP1 SSTORE POP DUP1 PUSH1 0x1 DUP4 PUSH1 0x40 MLOAD PUSH2 0x606 SWAP2 SWAP1 PUSH2 0x1338 JUMP JUMPDEST SWAP1 DUP2 MSTORE PUSH1 0x20 ADD PUSH1 0x40 MLOAD DUP1 SWAP2 SUB SWAP1 KECCAK256 PUSH1 0x2 ADD PUSH1 0x0 PUSH2 0x100 EXP DUP2 SLOAD DUP2 PUSH1 0xFF MUL NOT AND SWAP1 DUP4 ISZERO ISZERO MUL OR SWAP1 SSTORE POP DUP2 PUSH1 0x40 MLOAD PUSH2 0x63C SWAP2 SWAP1 PUSH2 0x1338 JUMP JUMPDEST PUSH1 0x40 MLOAD DUP1 SWAP2 SUB SWAP1 KECCAK256 PUSH32 0x93B6ADA0FB90DE98696B6FBE5CB05D3A447AA37F96F6417BFB8B0905D4A7CB62 DUP5 DUP4 PUSH1 0x40 MLOAD PUSH2 0x675 SWAP3 SWAP2 SWAP1 PUSH2 0xFFD JUMP JUMPDEST PUSH1 0x40 MLOAD DUP1 SWAP2 SUB SWAP1 LOG2 POP POP POP JUMP JUMPDEST PUSH1 0x1 PUSH1 0x3 DUP2 GT ISZERO PUSH2 0x696 JUMPI PUSH2 0x695 PUSH2 0x1026 JUMP JUMPDEST JUMPDEST PUSH1 0x0 DUP1 SLOAD SWAP1 PUSH2 0x100 EXP SWAP1 DIV PUSH20 0xFFFFFFFFFFFFFFFFFFFFFFFFFFFFFFFFFFFFFFFF AND PUSH20 0xFFFFFFFFFFFFFFFFFFFFFFFFFFFFFFFFFFFFFFFF AND PUSH4 0x85AF4777 DUP5 PUSH1 0x40 MLOAD DUP3 PUSH4 0xFFFFFFFF AND PUSH1 0xE0 SHL DUP2 MSTORE PUSH1 0x4 ADD PUSH2 0x6EF SWAP2 SWAP1 PUSH2 0x1055 JUMP JUMPDEST PUSH1 0x60 PUSH1 0x40 MLOAD DUP1 DUP4 SUB DUP2 DUP7 GAS STATICCALL ISZERO DUP1 ISZERO PUSH2 0x70C JUMPI RETURNDATASIZE PUSH1 0x0 DUP1 RETURNDATACOPY RETURNDATASIZE PUSH1 0x0 REVERT JUMPDEST POP POP POP POP PUSH1 0x40 MLOAD RETURNDATASIZE PUSH1 0x1F NOT PUSH1 0x1F DUP3 ADD AND DUP3 ADD DUP1 PUSH1 0x40 MSTORE POP DUP2 ADD SWAP1 PUSH2 0x730 SWAP2 SWAP1 PUSH2 0x1149 JUMP JUMPDEST PUSH1 0x40 ADD MLOAD PUSH1 0x3 DUP2 GT ISZERO PUSH2 0x746 JUMPI PUSH2 0x745 PUSH2 0x1026 JUMP JUMPDEST JUMPDEST EQ PUSH2 0x786 JUMPI PUSH1 0x40 MLOAD PUSH32 0x8C379A000000000000000000000000000000000000000000000000000000000 DUP2 MSTORE PUSH1 0x4 ADD PUSH2 0x77D SWAP1 PUSH2 0x11F9 JUMP JUMPDEST PUSH1 0x40 MLOAD DUP1 SWAP2 SUB SWAP1 REVERT JUMPDEST DUP2 PUSH1 0x1 DUP3 PUSH1 0x40 MLOAD PUSH2 0x797 SWAP2 SWAP1 PUSH2 0x1338 JUMP JUMPDEST SWAP1 DUP2 MSTORE PUSH1 0x20 ADD PUSH1 0x40 MLOAD DUP1 SWAP2 SUB SWAP1 KECCAK256 PUSH1 0x0 ADD SLOAD EQ PUSH2 0x7E9 JUMPI PUSH1 0x40 MLOAD PUSH32 0x8C379A000000000000000000000000000000000000000000000000000000000 DUP2 MSTORE PUSH1 0x4 ADD PUSH2 0x7E0 SWAP1 PUSH2 0x1407 JUMP JUMPDEST PUSH1 0x40 MLOAD DUP1 SWAP2 SUB SWAP1 REVERT JUMPDEST PUSH1 0x1 DUP2 PUSH1 0x40 MLOAD PUSH2 0x7F9 SWAP2 SWAP1 PUSH2 0x1338 JUMP JUMPDEST SWAP1 DUP2 MSTORE PUSH1 0x20 ADD PUSH1 0x40 MLOAD DUP1 SWAP2 SUB SWAP1 KECCAK256 PUSH1 0x1 ADD PUSH2 0x812 PUSH2 0xBDB JUMP JUMPDEST SWAP1 DUP1 PUSH1 0x1 DUP2 SLOAD ADD DUP1 DUP3 SSTORE DUP1 SWAP2 POP POP PUSH1 0x1 SWAP1 SUB SWAP1 PUSH1 0x0 MSTORE PUSH1 0x20 PUSH1 0x0 KECCAK256 ADD PUSH1 0x0 SWAP1 SWAP2 SWAP1 SWAP2 SWAP1 SWAP2 PUSH2 0x100 EXP DUP2 SLOAD DUP2 PUSH20 0xFFFFFFFFFFFFFFFFFFFFFFFFFFFFFFFFFFFFFFFF MUL NOT AND SWAP1 DUP4 PUSH20 0xFFFFFFFFFFFFFFFFFFFFFFFFFFFFFFFFFFFFFFFF AND MUL OR SWAP1 SSTORE POP DUP1 PUSH1 0x40 MLOAD PUSH2 0x880 SWAP2 SWAP1 PUSH2 0x1338 JUMP JUMPDEST PUSH1 0x40 MLOAD DUP1 SWAP2 SUB SWAP1 KECCAK256 PUSH32 0xE0303228079B12D90435D7E3843964EC0AE9400697F7F8AD4728F9AEC488EC64 DUP4 PUSH1 0x40 MLOAD PUSH2 0x8B7 SWAP2 SWAP1 PUSH2 0x1055 JUMP JUMPDEST PUSH1 0x40 MLOAD DUP1 SWAP2 SUB SWAP1 LOG2 POP POP JUMP JUMPDEST PUSH1 0x0 DUP1 SLOAD SWAP1 PUSH2 0x100 EXP SWAP1 DIV PUSH20 0xFFFFFFFFFFFFFFFFFFFFFFFFFFFFFFFFFFFFFFFF AND DUP2 JUMP JUMPDEST PUSH1 0x0 DUP1 PUSH1 0x0 DUP1 SLOAD SWAP1 PUSH2 0x100 EXP SWAP1 DIV PUSH20 0xFFFFFFFFFFFFFFFFFFFFFFFFFFFFFFFFFFFFFFFF AND PUSH20 0xFFFFFFFFFFFFFFFFFFFFFFFFFFFFFFFFFFFFFFFF AND PUSH4 0x85AF4777 DUP6 PUSH1 0x40 MLOAD DUP3 PUSH4 0xFFFFFFFF AND PUSH1 0xE0 SHL DUP2 MSTORE PUSH1 0x4 ADD PUSH2 0x943 SWAP2 SWAP1 PUSH2 0x1055 JUMP JUMPDEST PUSH1 0x60 PUSH1 0x40 MLOAD DUP1 DUP4 SUB DUP2 DUP7 GAS STATICCALL ISZERO DUP1 ISZERO PUSH2 0x960 JUMPI RETURNDATASIZE PUSH1 0x0 DUP1 RETURNDATACOPY RETURNDATASIZE PUSH1 0x0 REVERT JUMPDEST POP POP POP POP PUSH1 0x40 MLOAD RETURNDATASIZE PUSH1 0x1F NOT PUSH1 0x1F DUP3 ADD AND DUP3 ADD DUP1 PUSH1 0x40 MSTORE POP DUP2 ADD SWAP1 PUSH2 0x984 SWAP2 SWAP1 PUSH2 0x1149 JUMP JUMPDEST PUSH1 0x0 ADD MLOAD SUB PUSH2 0x9C8 JUMPI PUSH1 0x40 MLOAD PUSH32 0x8C379A000000000000000000000000000000000000000000000000000000000 DUP2 MSTORE PUSH1 0x4 ADD PUSH2 0x9BF SWAP1 PUSH2 0x11F9 JUMP JUMPDEST PUSH1 0x40 MLOAD DUP1 SWAP2 SUB SWAP1 REVERT JUMPDEST DUP3 PUSH1 0x1 DUP4 PUSH1 0x40 MLOAD PUSH2 0x9D9 SWAP2 SWAP1 PUSH2 0x1338 JUMP JUMPDEST SWAP1 DUP2 MSTORE PUSH1 0x20 ADD PUSH1 0x40 MLOAD DUP1 SWAP2 SUB SWAP1 KECCAK256 PUSH1 0x0 ADD SLOAD EQ PUSH2 0xA2B JUMPI PUSH1 0x40 MLOAD PUSH32 0x8C379A000000000000000000000000000000000000000000000000000000000 DUP2 MSTORE PUSH1 0x4 ADD PUSH2 0xA22 SWAP1 PUSH2 0x1473 JUMP JUMPDEST PUSH1 0x40 MLOAD DUP1 SWAP2 SUB SWAP1 REVERT JUMPDEST PUSH1 0x0 JUMPDEST PUSH1 0x1 DUP4 PUSH1 0x40 MLOAD PUSH2 0xA3E SWAP2 SWAP1 PUSH2 0x1338 JUMP JUMPDEST SWAP1 DUP2 MSTORE PUSH1 0x20 ADD PUSH1 0x40 MLOAD DUP1 SWAP2 SUB SWAP1 KECCAK256 PUSH1 0x1 ADD DUP1 SLOAD SWAP1 POP DUP2 LT ISZERO PUSH2 0xB0E JUMPI PUSH2 0xA62 PUSH2 0xBDB JUMP JUMPDEST PUSH20 0xFFFFFFFFFFFFFFFFFFFFFFFFFFFFFFFFFFFFFFFF AND PUSH1 0x1 DUP5 PUSH1 0x40 MLOAD PUSH2 0xA88 SWAP2 SWAP1 PUSH2 0x1338 JUMP JUMPDEST SWAP1 DUP2 MSTORE PUSH1 0x20 ADD PUSH1 0x40 MLOAD DUP1 SWAP2 SUB SWAP1 KECCAK256 PUSH1 0x1 ADD DUP3 DUP2 SLOAD DUP2 LT PUSH2 0xAAB JUMPI PUSH2 0xAAA PUSH2 0x1493 JUMP JUMPDEST JUMPDEST SWAP1 PUSH1 0x0 MSTORE PUSH1 0x20 PUSH1 0x0 KECCAK256 ADD PUSH1 0x0 SWAP1 SLOAD SWAP1 PUSH2 0x100 EXP SWAP1 DIV PUSH20 0xFFFFFFFFFFFFFFFFFFFFFFFFFFFFFFFFFFFFFFFF AND PUSH20 0xFFFFFFFFFFFFFFFFFFFFFFFFFFFFFFFFFFFFFFFF AND SUB PUSH2 0xAFB JUMPI PUSH1 0x1 SWAP2 POP POP PUSH2 0xB14 JUMP JUMPDEST DUP1 DUP1 PUSH2 0xB06 SWAP1 PUSH2 0x14F1 JUMP JUMPDEST SWAP2 POP POP PUSH2 0xA2E JUMP JUMPDEST POP PUSH1 0x0 SWAP1 POP JUMPDEST SWAP3 SWAP2 POP POP JUMP JUMPDEST DUP1 PUSH1 0x0 DUP1 PUSH2 0x100 EXP DUP2 SLOAD DUP2 PUSH20 0xFFFFFFFFFFFFFFFFFFFFFFFFFFFFFFFFFFFFFFFF MUL NOT AND SWAP1 DUP4 PUSH20 0xFFFFFFFFFFFFFFFFFFFFFFFFFFFFFFFFFFFFFFFF AND MUL OR SWAP1 SSTORE POP PUSH32 0x88E5EE09A3A55F83D04E49BCB2C95BEF29EC12BD1B1E6E237202D6B6851966F8 DUP2 PUSH1 0x40 MLOAD PUSH2 0xB89 SWAP2 SWAP1 PUSH2 0x1548 JUMP JUMPDEST PUSH1 0x40 MLOAD DUP1 SWAP2 SUB SWAP1 LOG1 POP JUMP JUMPDEST PUSH1 0x1 DUP2 DUP1 MLOAD PUSH1 0x20 DUP2 ADD DUP3 ADD DUP1 MLOAD DUP5 DUP3 MSTORE PUSH1 0x20 DUP4 ADD PUSH1 0x20 DUP6 ADD KECCAK256 DUP2 DUP4 MSTORE DUP1 SWAP6 POP POP POP POP POP POP PUSH1 0x0 SWAP2 POP SWAP1 POP DUP1 PUSH1 0x0 ADD SLOAD SWAP1 DUP1 PUSH1 0x2 ADD PUSH1 0x0 SWAP1 SLOAD SWAP1 PUSH2 0x100 EXP SWAP1 DIV PUSH1 0xFF AND SWAP1 POP DUP3 JUMP JUMPDEST PUSH1 0x0 CALLER SWAP1 POP SWAP1 JUMP JUMPDEST PUSH1 0x0 PUSH1 0x40 MLOAD SWAP1 POP SWAP1 JUMP JUMPDEST PUSH1 0x0 DUP1 REVERT JUMPDEST PUSH1 0x0 DUP1 REVERT JUMPDEST PUSH1 0x0 DUP2 SWAP1 POP SWAP2 SWAP1 POP JUMP JUMPDEST PUSH2 0xC0A DUP2 PUSH2 0xBF7 JUMP JUMPDEST DUP2 EQ PUSH2 0xC15 JUMPI PUSH1 0x0 DUP1 REVERT JUMPDEST POP JUMP JUMPDEST PUSH1 0x0 DUP2 CALLDATALOAD SWAP1 POP PUSH2 0xC27 DUP2 PUSH2 0xC01 JUMP JUMPDEST SWAP3 SWAP2 POP POP JUMP JUMPDEST PUSH1 0x0 DUP1 REVERT JUMPDEST PUSH1 0x0 DUP1 REVERT JUMPDEST PUSH1 0x0 PUSH1 0x1F NOT PUSH1 0x1F DUP4 ADD AND SWAP1 POP SWAP2 SWAP1 POP JUMP JUMPDEST PUSH32 0x4E487B7100000000000000000000000000000000000000000000000000000000 PUSH1 0x0 MSTORE PUSH1 0x41 PUSH1 0x4 MSTORE PUSH1 0x24 PUSH1 0x0 REVERT JUMPDEST PUSH2 0xC80 DUP3 PUSH2 0xC37 JUMP JUMPDEST DUP2 ADD DUP2 DUP2 LT PUSH8 0xFFFFFFFFFFFFFFFF DUP3 GT OR ISZERO PUSH2 0xC9F JUMPI PUSH2 0xC9E PUSH2 0xC48 JUMP JUMPDEST JUMPDEST DUP1 PUSH1 0x40 MSTORE POP POP POP JUMP JUMPDEST PUSH1 0x0 PUSH2 0xCB2 PUSH2 0xBE3 JUMP JUMPDEST SWAP1 POP PUSH2 0xCBE DUP3 DUP3 PUSH2 0xC77 JUMP JUMPDEST SWAP2 SWAP1 POP JUMP JUMPDEST PUSH1 0x0 PUSH8 0xFFFFFFFFFFFFFFFF DUP3 GT ISZERO PUSH2 0xCDE JUMPI PUSH2 0xCDD PUSH2 0xC48 JUMP JUMPDEST JUMPDEST PUSH2 0xCE7 DUP3 PUSH2 0xC37 JUMP JUMPDEST SWAP1 POP PUSH1 0x20 DUP2 ADD SWAP1 POP SWAP2 SWAP1 POP JUMP JUMPDEST DUP3 DUP2 DUP4 CALLDATACOPY PUSH1 0x0 DUP4 DUP4 ADD MSTORE POP POP POP JUMP JUMPDEST PUSH1 0x0 PUSH2 0xD16 PUSH2 0xD11 DUP5 PUSH2 0xCC3 JUMP JUMPDEST PUSH2 0xCA8 JUMP JUMPDEST SWAP1 POP DUP3 DUP2 MSTORE PUSH1 0x20 DUP2 ADD DUP5 DUP5 DUP5 ADD GT ISZERO PUSH2 0xD32 JUMPI PUSH2 0xD31 PUSH2 0xC32 JUMP JUMPDEST JUMPDEST PUSH2 0xD3D DUP5 DUP3 DUP6 PUSH2 0xCF4 JUMP JUMPDEST POP SWAP4 SWAP3 POP POP POP JUMP JUMPDEST PUSH1 0x0 DUP3 PUSH1 0x1F DUP4 ADD SLT PUSH2 0xD5A JUMPI PUSH2 0xD59 PUSH2 0xC2D JUMP JUMPDEST JUMPDEST DUP2 CALLDATALOAD PUSH2 0xD6A DUP5 DUP3 PUSH1 0x20 DUP7 ADD PUSH2 0xD03 JUMP JUMPDEST SWAP2 POP POP SWAP3 SWAP2 POP POP JUMP JUMPDEST PUSH1 0x0 DUP2 ISZERO ISZERO SWAP1 POP SWAP2 SWAP1 POP JUMP JUMPDEST PUSH2 0xD88 DUP2 PUSH2 0xD73 JUMP JUMPDEST DUP2 EQ PUSH2 0xD93 JUMPI PUSH1 0x0 DUP1 REVERT JUMPDEST POP JUMP JUMPDEST PUSH1 0x0 DUP2 CALLDATALOAD SWAP1 POP PUSH2 0xDA5 DUP2 PUSH2 0xD7F JUMP JUMPDEST SWAP3 SWAP2 POP POP JUMP JUMPDEST PUSH1 0x0 DUP1 PUSH1 0x0 PUSH1 0x60 DUP5 DUP7 SUB SLT ISZERO PUSH2 0xDC4 JUMPI PUSH2 0xDC3 PUSH2 0xBED JUMP JUMPDEST JUMPDEST PUSH1 0x0 PUSH2 0xDD2 DUP7 DUP3 DUP8 ADD PUSH2 0xC18 JUMP JUMPDEST SWAP4 POP POP PUSH1 0x20 DUP5 ADD CALLDATALOAD PUSH8 0xFFFFFFFFFFFFFFFF DUP2 GT ISZERO PUSH2 0xDF3 JUMPI PUSH2 0xDF2 PUSH2 0xBF2 JUMP JUMPDEST JUMPDEST PUSH2 0xDFF DUP7 DUP3 DUP8 ADD PUSH2 0xD45 JUMP JUMPDEST SWAP3 POP POP PUSH1 0x40 PUSH2 0xE10 DUP7 DUP3 DUP8 ADD PUSH2 0xD96 JUMP JUMPDEST SWAP2 POP POP SWAP3 POP SWAP3 POP SWAP3 JUMP JUMPDEST PUSH1 0x0 DUP1 PUSH1 0x40 DUP4 DUP6 SUB SLT ISZERO PUSH2 0xE31 JUMPI PUSH2 0xE30 PUSH2 0xBED JUMP JUMPDEST JUMPDEST PUSH1 0x0 PUSH2 0xE3F DUP6 DUP3 DUP7 ADD PUSH2 0xC18 JUMP JUMPDEST SWAP3 POP POP PUSH1 0x20 DUP4 ADD CALLDATALOAD PUSH8 0xFFFFFFFFFFFFFFFF DUP2 GT ISZERO PUSH2 0xE60 JUMPI PUSH2 0xE5F PUSH2 0xBF2 JUMP JUMPDEST JUMPDEST PUSH2 0xE6C DUP6 DUP3 DUP7 ADD PUSH2 0xD45 JUMP JUMPDEST SWAP2 POP POP SWAP3 POP SWAP3 SWAP1 POP JUMP JUMPDEST PUSH1 0x0 PUSH20 0xFFFFFFFFFFFFFFFFFFFFFFFFFFFFFFFFFFFFFFFF DUP3 AND SWAP1 POP SWAP2 SWAP1 POP JUMP JUMPDEST PUSH1 0x0 DUP2 SWAP1 POP SWAP2 SWAP1 POP JUMP JUMPDEST PUSH1 0x0 PUSH2 0xEBB PUSH2 0xEB6 PUSH2 0xEB1 DUP5 PUSH2 0xE76 JUMP JUMPDEST PUSH2 0xE96 JUMP JUMPDEST PUSH2 0xE76 JUMP JUMPDEST SWAP1 POP SWAP2 SWAP1 POP JUMP JUMPDEST PUSH1 0x0 PUSH2 0xECD DUP3 PUSH2 0xEA0 JUMP JUMPDEST SWAP1 POP SWAP2 SWAP1 POP JUMP JUMPDEST PUSH1 0x0 PUSH2 0xEDF DUP3 PUSH2 0xEC2 JUMP JUMPDEST SWAP1 POP SWAP2 SWAP1 POP JUMP JUMPDEST PUSH2 0xEEF DUP2 PUSH2 0xED4 JUMP JUMPDEST DUP3 MSTORE POP POP JUMP JUMPDEST PUSH1 0x0 PUSH1 0x20 DUP3 ADD SWAP1 POP PUSH2 0xF0A PUSH1 0x0 DUP4 ADD DUP5 PUSH2 0xEE6 JUMP JUMPDEST SWAP3 SWAP2 POP POP JUMP JUMPDEST PUSH2 0xF19 DUP2 PUSH2 0xD73 JUMP JUMPDEST DUP3 MSTORE POP POP JUMP JUMPDEST PUSH1 0x0 PUSH1 0x20 DUP3 ADD SWAP1 POP PUSH2 0xF34 PUSH1 0x0 DUP4 ADD DUP5 PUSH2 0xF10 JUMP JUMPDEST SWAP3 SWAP2 POP POP JUMP JUMPDEST PUSH1 0x0 PUSH2 0xF45 DUP3 PUSH2 0xE76 JUMP JUMPDEST SWAP1 POP SWAP2 SWAP1 POP JUMP JUMPDEST PUSH2 0xF55 DUP2 PUSH2 0xF3A JUMP JUMPDEST DUP2 EQ PUSH2 0xF60 JUMPI PUSH1 0x0 DUP1 REVERT JUMPDEST POP JUMP JUMPDEST PUSH1 0x0 DUP2 CALLDATALOAD SWAP1 POP PUSH2 0xF72 DUP2 PUSH2 0xF4C JUMP JUMPDEST SWAP3 SWAP2 POP POP JUMP JUMPDEST PUSH1 0x0 PUSH1 0x20 DUP3 DUP5 SUB SLT ISZERO PUSH2 0xF8E JUMPI PUSH2 0xF8D PUSH2 0xBED JUMP JUMPDEST JUMPDEST PUSH1 0x0 PUSH2 0xF9C DUP5 DUP3 DUP6 ADD PUSH2 0xF63 JUMP JUMPDEST SWAP2 POP POP SWAP3 SWAP2 POP POP JUMP JUMPDEST PUSH1 0x0 PUSH1 0x20 DUP3 DUP5 SUB SLT ISZERO PUSH2 0xFBB JUMPI PUSH2 0xFBA PUSH2 0xBED JUMP JUMPDEST JUMPDEST PUSH1 0x0 DUP3 ADD CALLDATALOAD PUSH8 0xFFFFFFFFFFFFFFFF DUP2 GT ISZERO PUSH2 0xFD9 JUMPI PUSH2 0xFD8 PUSH2 0xBF2 JUMP JUMPDEST JUMPDEST PUSH2 0xFE5 DUP5 DUP3 DUP6 ADD PUSH2 0xD45 JUMP JUMPDEST SWAP2 POP POP SWAP3 SWAP2 POP POP JUMP JUMPDEST PUSH2 0xFF7 DUP2 PUSH2 0xBF7 JUMP JUMPDEST DUP3 MSTORE POP POP JUMP JUMPDEST PUSH1 0x0 PUSH1 0x40 DUP3 ADD SWAP1 POP PUSH2 0x1012 PUSH1 0x0 DUP4 ADD DUP6 PUSH2 0xFEE JUMP JUMPDEST PUSH2 0x101F PUSH1 0x20 DUP4 ADD DUP5 PUSH2 0xF10 JUMP JUMPDEST SWAP4 SWAP3 POP POP POP JUMP JUMPDEST PUSH32 0x4E487B7100000000000000000000000000000000000000000000000000000000 PUSH1 0x0 MSTORE PUSH1 0x21 PUSH1 0x4 MSTORE PUSH1 0x24 PUSH1 0x0 REVERT JUMPDEST PUSH1 0x0 PUSH1 0x20 DUP3 ADD SWAP1 POP PUSH2 0x106A PUSH1 0x0 DUP4 ADD DUP5 PUSH2 0xFEE JUMP JUMPDEST SWAP3 SWAP2 POP POP JUMP JUMPDEST PUSH1 0x0 DUP1 REVERT JUMPDEST PUSH1 0x0 DUP2 MLOAD SWAP1 POP PUSH2 0x1084 DUP2 PUSH2 0xC01 JUMP JUMPDEST SWAP3 SWAP2 POP POP JUMP JUMPDEST PUSH1 0x0 DUP2 SWAP1 POP SWAP2 SWAP1 POP JUMP JUMPDEST PUSH2 0x109D DUP2 PUSH2 0x108A JUMP JUMPDEST DUP2 EQ PUSH2 0x10A8 JUMPI PUSH1 0x0 DUP1 REVERT JUMPDEST POP JUMP JUMPDEST PUSH1 0x0 DUP2 MLOAD SWAP1 POP PUSH2 0x10BA DUP2 PUSH2 0x1094 JUMP JUMPDEST SWAP3 SWAP2 POP POP JUMP JUMPDEST PUSH1 0x4 DUP2 LT PUSH2 0x10CD JUMPI PUSH1 0x0 DUP1 REVERT JUMPDEST POP JUMP JUMPDEST PUSH1 0x0 DUP2 MLOAD SWAP1 POP PUSH2 0x10DF DUP2 PUSH2 0x10C0 JUMP JUMPDEST SWAP3 SWAP2 POP POP JUMP JUMPDEST PUSH1 0x0 PUSH1 0x60 DUP3 DUP5 SUB SLT ISZERO PUSH2 0x10FB JUMPI PUSH2 0x10FA PUSH2 0x1070 JUMP JUMPDEST JUMPDEST PUSH2 0x1105 PUSH1 0x60 PUSH2 0xCA8 JUMP JUMPDEST SWAP1 POP PUSH1 0x0 PUSH2 0x1115 DUP5 DUP3 DUP6 ADD PUSH2 0x1075 JUMP JUMPDEST PUSH1 0x0 DUP4 ADD MSTORE POP PUSH1 0x20 PUSH2 0x1129 DUP5 DUP3 DUP6 ADD PUSH2 0x10AB JUMP JUMPDEST PUSH1 0x20 DUP4 ADD MSTORE POP PUSH1 0x40 PUSH2 0x113D DUP5 DUP3 DUP6 ADD PUSH2 0x10D0 JUMP JUMPDEST PUSH1 0x40 DUP4 ADD MSTORE POP SWAP3 SWAP2 POP POP JUMP JUMPDEST PUSH1 0x0 PUSH1 0x60 DUP3 DUP5 SUB SLT ISZERO PUSH2 0x115F JUMPI PUSH2 0x115E PUSH2 0xBED JUMP JUMPDEST JUMPDEST PUSH1 0x0 PUSH2 0x116D DUP5 DUP3 DUP6 ADD PUSH2 0x10E5 JUMP JUMPDEST SWAP2 POP POP SWAP3 SWAP2 POP POP JUMP JUMPDEST PUSH1 0x0 DUP3 DUP3 MSTORE PUSH1 0x20 DUP3 ADD SWAP1 POP SWAP3 SWAP2 POP POP JUMP JUMPDEST PUSH32 0x4F6E6C7920612072656769737465726564206D656D6265722068617320746865 PUSH1 0x0 DUP3 ADD MSTORE PUSH32 0x2061636365737300000000000000000000000000000000000000000000000000 PUSH1 0x20 DUP3 ADD MSTORE POP JUMP JUMPDEST PUSH1 0x0 PUSH2 0x11E3 PUSH1 0x27 DUP4 PUSH2 0x1176 JUMP JUMPDEST SWAP2 POP PUSH2 0x11EE DUP3 PUSH2 0x1187 JUMP JUMPDEST PUSH1 0x40 DUP3 ADD SWAP1 POP SWAP2 SWAP1 POP JUMP JUMPDEST PUSH1 0x0 PUSH1 0x20 DUP3 ADD SWAP1 POP DUP2 DUP2 SUB PUSH1 0x0 DUP4 ADD MSTORE PUSH2 0x1212 DUP2 PUSH2 0x11D6 JUMP JUMPDEST SWAP1 POP SWAP2 SWAP1 POP JUMP JUMPDEST PUSH1 0x0 DUP2 MLOAD SWAP1 POP PUSH2 0x1228 DUP2 PUSH2 0xF4C JUMP JUMPDEST SWAP3 SWAP2 POP POP JUMP JUMPDEST PUSH1 0x0 PUSH1 0x20 DUP3 DUP5 SUB SLT ISZERO PUSH2 0x1244 JUMPI PUSH2 0x1243 PUSH2 0xBED JUMP JUMPDEST JUMPDEST PUSH1 0x0 PUSH2 0x1252 DUP5 DUP3 DUP6 ADD PUSH2 0x1219 JUMP JUMPDEST SWAP2 POP POP SWAP3 SWAP2 POP POP JUMP JUMPDEST PUSH32 0x4F6E6C7920746865206F776E65722063616E2075706C6F616420646174610000 PUSH1 0x0 DUP3 ADD MSTORE POP JUMP JUMPDEST PUSH1 0x0 PUSH2 0x1291 PUSH1 0x1E DUP4 PUSH2 0x1176 JUMP JUMPDEST SWAP2 POP PUSH2 0x129C DUP3 PUSH2 0x125B JUMP JUMPDEST PUSH1 0x20 DUP3 ADD SWAP1 POP SWAP2 SWAP1 POP JUMP JUMPDEST PUSH1 0x0 PUSH1 0x20 DUP3 ADD SWAP1 POP DUP2 DUP2 SUB PUSH1 0x0 DUP4 ADD MSTORE PUSH2 0x12C0 DUP2 PUSH2 0x1284 JUMP JUMPDEST SWAP1 POP SWAP2 SWAP1 POP JUMP JUMPDEST PUSH1 0x0 DUP2 MLOAD SWAP1 POP SWAP2 SWAP1 POP JUMP JUMPDEST PUSH1 0x0 DUP2 SWAP1 POP SWAP3 SWAP2 POP POP JUMP JUMPDEST PUSH1 0x0 JUMPDEST DUP4 DUP2 LT ISZERO PUSH2 0x12FB JUMPI DUP1 DUP3 ADD MLOAD DUP2 DUP5 ADD MSTORE PUSH1 0x20 DUP2 ADD SWAP1 POP PUSH2 0x12E0 JUMP JUMPDEST PUSH1 0x0 DUP5 DUP5 ADD MSTORE POP POP POP POP JUMP JUMPDEST PUSH1 0x0 PUSH2 0x1312 DUP3 PUSH2 0x12C7 JUMP JUMPDEST PUSH2 0x131C DUP2 DUP6 PUSH2 0x12D2 JUMP JUMPDEST SWAP4 POP PUSH2 0x132C DUP2 DUP6 PUSH1 0x20 DUP7 ADD PUSH2 0x12DD JUMP JUMPDEST DUP1 DUP5 ADD SWAP2 POP POP SWAP3 SWAP2 POP POP JUMP JUMPDEST PUSH1 0x0 PUSH2 0x1344 DUP3 DUP5 PUSH2 0x1307 JUMP JUMPDEST SWAP2 POP DUP2 SWAP1 POP SWAP3 SWAP2 POP POP JUMP JUMPDEST PUSH32 0x4461746120697320616C72656164792075706C6F616465640000000000000000 PUSH1 0x0 DUP3 ADD MSTORE POP JUMP JUMPDEST PUSH1 0x0 PUSH2 0x1385 PUSH1 0x18 DUP4 PUSH2 0x1176 JUMP JUMPDEST SWAP2 POP PUSH2 0x1390 DUP3 PUSH2 0x134F JUMP JUMPDEST PUSH1 0x20 DUP3 ADD SWAP1 POP SWAP2 SWAP1 POP JUMP JUMPDEST PUSH1 0x0 PUSH1 0x20 DUP3 ADD SWAP1 POP DUP2 DUP2 SUB PUSH1 0x0 DUP4 ADD MSTORE PUSH2 0x13B4 DUP2 PUSH2 0x1378 JUMP JUMPDEST SWAP1 POP SWAP2 SWAP1 POP JUMP JUMPDEST PUSH32 0x4F6E6C7420746865206F776E65722063616E206772616E742061636365737300 PUSH1 0x0 DUP3 ADD MSTORE POP JUMP JUMPDEST PUSH1 0x0 PUSH2 0x13F1 PUSH1 0x1F DUP4 PUSH2 0x1176 JUMP JUMPDEST SWAP2 POP PUSH2 0x13FC DUP3 PUSH2 0x13BB JUMP JUMPDEST PUSH1 0x20 DUP3 ADD SWAP1 POP SWAP2 SWAP1 POP JUMP JUMPDEST PUSH1 0x0 PUSH1 0x20 DUP3 ADD SWAP1 POP DUP2 DUP2 SUB PUSH1 0x0 DUP4 ADD MSTORE PUSH2 0x1420 DUP2 PUSH2 0x13E4 JUMP JUMPDEST SWAP1 POP SWAP2 SWAP1 POP JUMP JUMPDEST PUSH32 0x4F6E6C7920746865206F776E65722063616E2076657269667920616363657373 PUSH1 0x0 DUP3 ADD MSTORE POP JUMP JUMPDEST PUSH1 0x0 PUSH2 0x145D PUSH1 0x20 DUP4 PUSH2 0x1176 JUMP JUMPDEST SWAP2 POP PUSH2 0x1468 DUP3 PUSH2 0x1427 JUMP JUMPDEST PUSH1 0x20 DUP3 ADD SWAP1 POP SWAP2 SWAP1 POP JUMP JUMPDEST PUSH1 0x0 PUSH1 0x20 DUP3 ADD SWAP1 POP DUP2 DUP2 SUB PUSH1 0x0 DUP4 ADD MSTORE PUSH2 0x148C DUP2 PUSH2 0x1450 JUMP JUMPDEST SWAP1 POP SWAP2 SWAP1 POP JUMP JUMPDEST PUSH32 0x4E487B7100000000000000000000000000000000000000000000000000000000 PUSH1 0x0 MSTORE PUSH1 0x32 PUSH1 0x4 MSTORE PUSH1 0x24 PUSH1 0x0 REVERT JUMPDEST PUSH32 0x4E487B7100000000000000000000000000000000000000000000000000000000 PUSH1 0x0 MSTORE PUSH1 0x11 PUSH1 0x4 MSTORE PUSH1 0x24 PUSH1 0x0 REVERT JUMPDEST PUSH1 0x0 PUSH2 0x14FC DUP3 PUSH2 0xBF7 JUMP JUMPDEST SWAP2 POP PUSH32 0xFFFFFFFFFFFFFFFFFFFFFFFFFFFFFFFFFFFFFFFFFFFFFFFFFFFFFFFFFFFFFFFF DUP3 SUB PUSH2 0x152E JUMPI PUSH2 0x152D PUSH2 0x14C2 JUMP JUMPDEST JUMPDEST PUSH1 0x1 DUP3 ADD SWAP1 POP SWAP2 SWAP1 POP JUMP JUMPDEST PUSH2 0x1542 DUP2 PUSH2 0xF3A JUMP JUMPDEST DUP3 MSTORE POP POP JUMP JUMPDEST PUSH1 0x0 PUSH1 0x20 DUP3 ADD SWAP1 POP PUSH2 0x155D PUSH1 0x0 DUP4 ADD DUP5 PUSH2 0x1539 JUMP JUMPDEST SWAP3 SWAP2 POP POP JUMP INVALID LOG2 PUSH5 0x6970667358 0x22 SLT KECCAK256 SLOAD 0x2A 0xA9 0xB4 0xC1 RETURN MLOAD SWAP13 0x5C 0xF6 KECCAK256 SDIV 0xF9 LT 0x1E 0xDA SMOD SWAP2 ADDRESS KECCAK256 0x2F 0xAD DUP1 MSTORE8 0x29 0xEA CALLVALUE 0xEE AND 0x2F STOP DUP14 PUSH5 0x736F6C6343 STOP ADDMOD EQ STOP CALLER "},"methodIdentifiers":{"_dataCure()":"428e9cc6","accessListByCid(string)":"91c602a9","grandAccess(uint256,string)":"295f036b","updateDataCureFactory(address)":"86240f81","uploadData(uint256,string,bool)":"281cac05","verifyAccess(uint256,string)":"7cf63464"}}}}}