{
  "_format": "hh-sol-artifact-1",
  "contractName": "DataCureAccess",
  "sourceName": "contracts/DataCureAccess.sol",
  "abi": [
    {
      "inputs": [
        {
          "internalType": "contract IDataCure",
          "name": "_dataCureAddr",
          "type": "address"
        }
      ],
      "stateMutability": "nonpayable",
      "type": "constructor"
    },
    {
      "anonymous": false,
      "inputs": [
        {
          "indexed": false,
          "internalType": "uint256",
          "name": "_userToken",
          "type": "uint256"
        },
        {
          "indexed": true,
          "internalType": "string",
          "name": "_cid",
          "type": "string"
        }
      ],
      "name": "GrandAccess",
      "type": "event"
    },
    {
      "anonymous": false,
      "inputs": [
        {
          "indexed": false,
          "internalType": "address",
          "name": "_dataCureAddr",
          "type": "address"
        }
      ],
      "name": "UpdateDataCureAddress",
      "type": "event"
    },
    {
      "anonymous": false,
      "inputs": [
        {
          "indexed": false,
          "internalType": "uint256",
          "name": "_userToken",
          "type": "uint256"
        },
        {
          "indexed": true,
          "internalType": "string",
          "name": "_cid",
          "type": "string"
        },
        {
          "indexed": false,
          "internalType": "bool",
          "name": "_listForSale",
          "type": "bool"
        }
      ],
      "name": "UploadData",
      "type": "event"
    },
    {
      "inputs": [],
      "name": "_dataCure",
      "outputs": [
        {
          "internalType": "contract IDataCure",
          "name": "",
          "type": "address"
        }
      ],
      "stateMutability": "view",
      "type": "function"
    },
    {
      "inputs": [
        {
          "internalType": "string",
          "name": "",
          "type": "string"
        }
      ],
      "name": "accessListByCid",
      "outputs": [
        {
          "internalType": "uint256",
          "name": "ownerToken",
          "type": "uint256"
        },
        {
          "internalType": "bool",
          "name": "listForSale",
          "type": "bool"
        }
      ],
      "stateMutability": "view",
      "type": "function"
    },
    {
      "inputs": [
        {
          "internalType": "uint256",
          "name": "_userToken",
          "type": "uint256"
        },
        {
          "internalType": "string",
          "name": "_cid",
          "type": "string"
        }
      ],
      "name": "grandAccess",
      "outputs": [],
      "stateMutability": "nonpayable",
      "type": "function"
    },
    {
      "inputs": [
        {
          "internalType": "address",
          "name": "_dataCureAddr",
          "type": "address"
        }
      ],
      "name": "updateDataCureFactory",
      "outputs": [],
      "stateMutability": "nonpayable",
      "type": "function"
    },
    {
      "inputs": [
        {
          "internalType": "uint256",
          "name": "_userToken",
          "type": "uint256"
        },
        {
          "internalType": "string",
          "name": "_cid",
          "type": "string"
        },
        {
          "internalType": "bool",
          "name": "_listForSale",
          "type": "bool"
        }
      ],
      "name": "uploadData",
      "outputs": [],
      "stateMutability": "nonpayable",
      "type": "function"
    },
    {
      "inputs": [
        {
          "internalType": "uint256",
          "name": "_userToken",
          "type": "uint256"
        },
        {
          "internalType": "string",
          "name": "_cid",
          "type": "string"
        }
      ],
      "name": "verifyAccess",
      "outputs": [
        {
          "internalType": "bool",
          "name": "",
          "type": "bool"
        }
      ],
      "stateMutability": "view",
      "type": "function"
    }
  ],
  "bytecode": "0x60806040523480156200001157600080fd5b50604051620016d7380380620016d78339818101604052810190620000379190620000fc565b806000806101000a81548173ffffffffffffffffffffffffffffffffffffffff021916908373ffffffffffffffffffffffffffffffffffffffff160217905550506200012e565b600080fd5b600073ffffffffffffffffffffffffffffffffffffffff82169050919050565b6000620000b08262000083565b9050919050565b6000620000c482620000a3565b9050919050565b620000d681620000b7565b8114620000e257600080fd5b50565b600081519050620000f681620000cb565b92915050565b6000602082840312156200011557620001146200007e565b5b60006200012584828501620000e5565b91505092915050565b611599806200013e6000396000f3fe608060405234801561001057600080fd5b50600436106100625760003560e01c8063281cac0514610067578063295f036b14610083578063428e9cc61461009f5780637cf63464146100bd57806386240f81146100ed57806391c602a914610109575b600080fd5b610081600480360381019061007c9190610dab565b61013a565b005b61009d60048036038101906100989190610e1a565b610682565b005b6100a76108c3565b6040516100b49190610ef5565b60405180910390f35b6100d760048036038101906100d29190610e1a565b6108e7565b6040516100e49190610f1f565b60405180910390f35b61010760048036038101906101029190610f78565b610b1a565b005b610123600480360381019061011e9190610fa5565b610b94565b604051610131929190610ffd565b60405180910390f35b6001600381111561014e5761014d611026565b5b60008054906101000a900473ffffffffffffffffffffffffffffffffffffffff1673ffffffffffffffffffffffffffffffffffffffff166385af4777856040518263ffffffff1660e01b81526004016101a79190611055565b606060405180830381865afa1580156101c4573d6000803e3d6000fd5b505050506040513d601f19601f820116820180604052508101906101e89190611149565b6040015160038111156101fe576101fd611026565b5b14806102cb57506002600381111561021957610218611026565b5b60008054906101000a900473ffffffffffffffffffffffffffffffffffffffff1673ffffffffffffffffffffffffffffffffffffffff166385af4777856040518263ffffffff1660e01b81526004016102729190611055565b606060405180830381865afa15801561028f573d6000803e3d6000fd5b505050506040513d601f19601f820116820180604052508101906102b39190611149565b6040015160038111156102c9576102c8611026565b5b145b61030a576040517f08c379a0000000000000000000000000000000000000000000000000000000008152600401610301906111f9565b60405180910390fd5b6001600381111561031e5761031d611026565b5b60008054906101000a900473ffffffffffffffffffffffffffffffffffffffff1673ffffffffffffffffffffffffffffffffffffffff166385af4777856040518263ffffffff1660e01b81526004016103779190611055565b606060405180830381865afa158015610394573d6000803e3d6000fd5b505050506040513d601f19601f820116820180604052508101906103b89190611149565b6040015160038111156103ce576103cd611026565b5b036104e2576103db610bdb565b73ffffffffffffffffffffffffffffffffffffffff1660008054906101000a900473ffffffffffffffffffffffffffffffffffffffff1673ffffffffffffffffffffffffffffffffffffffff16636352211e856040518263ffffffff1660e01b815260040161044a9190611055565b602060405180830381865afa158015610467573d6000803e3d6000fd5b505050506040513d601f19601f8201168201806040525081019061048b919061122e565b73ffffffffffffffffffffffffffffffffffffffff16146104e1576040517f08c379a00000000000000000000000000000000000000000000000000000000081526004016104d8906112a7565b60405180910390fd5b5b60006001836040516104f49190611338565b90815260200160405180910390206000015414610546576040517f08c379a000000000000000000000000000000000000000000000000000000000815260040161053d9061139b565b60405180910390fd5b826001836040516105579190611338565b90815260200160405180910390206000018190555060018260405161057c9190611338565b9081526020016040518091039020600101610595610bdb565b9080600181540180825580915050600190039060005260206000200160009091909190916101000a81548173ffffffffffffffffffffffffffffffffffffffff021916908373ffffffffffffffffffffffffffffffffffffffff160217905550806001836040516106069190611338565b908152602001604051809103902060020160006101000a81548160ff0219169083151502179055508160405161063c9190611338565b60405180910390207f93b6ada0fb90de98696b6fbe5cb05d3a447aa37f96f6417bfb8b0905d4a7cb628483604051610675929190610ffd565b60405180910390a2505050565b6001600381111561069657610695611026565b5b60008054906101000a900473ffffffffffffffffffffffffffffffffffffffff1673ffffffffffffffffffffffffffffffffffffffff166385af4777846040518263ffffffff1660e01b81526004016106ef9190611055565b606060405180830381865afa15801561070c573d6000803e3d6000fd5b505050506040513d601f19601f820116820180604052508101906107309190611149565b60400151600381111561074657610745611026565b5b14610786576040517f08c379a000000000000000000000000000000000000000000000000000000000815260040161077d906111f9565b60405180910390fd5b816001826040516107979190611338565b908152602001604051809103902060000154146107e9576040517f08c379a00000000000000000000000000000000000000000000000000000000081526004016107e090611407565b60405180910390fd5b6001816040516107f99190611338565b9081526020016040518091039020600101610812610bdb565b9080600181540180825580915050600190039060005260206000200160009091909190916101000a81548173ffffffffffffffffffffffffffffffffffffffff021916908373ffffffffffffffffffffffffffffffffffffffff160217905550806040516108809190611338565b60405180910390207fe0303228079b12d90435d7e3843964ec0ae9400697f7f8ad4728f9aec488ec64836040516108b79190611055565b60405180910390a25050565b60008054906101000a900473ffffffffffffffffffffffffffffffffffffffff1681565b60008060008054906101000a900473ffffffffffffffffffffffffffffffffffffffff1673ffffffffffffffffffffffffffffffffffffffff166385af4777856040518263ffffffff1660e01b81526004016109439190611055565b606060405180830381865afa158015610960573d6000803e3d6000fd5b505050506040513d601f19601f820116820180604052508101906109849190611149565b60000151036109c8576040517f08c379a00000000000000000000000000000000000000000000000000000000081526004016109bf906111f9565b60405180910390fd5b826001836040516109d99190611338565b90815260200160405180910390206000015414610a2b576040517f08c379a0000000000000000000000000000000000000000000000000000000008152600401610a2290611473565b60405180910390fd5b60005b600183604051610a3e9190611338565b908152602001604051809103902060010180549050811015610b0e57610a62610bdb565b73ffffffffffffffffffffffffffffffffffffffff16600184604051610a889190611338565b90815260200160405180910390206001018281548110610aab57610aaa611493565b5b9060005260206000200160009054906101000a900473ffffffffffffffffffffffffffffffffffffffff1673ffffffffffffffffffffffffffffffffffffffff1603610afb576001915050610b14565b8080610b06906114f1565b915050610a2e565b50600090505b92915050565b806000806101000a81548173ffffffffffffffffffffffffffffffffffffffff021916908373ffffffffffffffffffffffffffffffffffffffff1602179055507f88e5ee09a3a55f83d04e49bcb2c95bef29ec12bd1b1e6e237202d6b6851966f881604051610b899190611548565b60405180910390a150565b6001818051602081018201805184825260208301602085012081835280955050505050506000915090508060000154908060020160009054906101000a900460ff16905082565b600033905090565b6000604051905090565b600080fd5b600080fd5b6000819050919050565b610c0a81610bf7565b8114610c1557600080fd5b50565b600081359050610c2781610c01565b92915050565b600080fd5b600080fd5b6000601f19601f8301169050919050565b7f4e487b7100000000000000000000000000000000000000000000000000000000600052604160045260246000fd5b610c8082610c37565b810181811067ffffffffffffffff82111715610c9f57610c9e610c48565b5b80604052505050565b6000610cb2610be3565b9050610cbe8282610c77565b919050565b600067ffffffffffffffff821115610cde57610cdd610c48565b5b610ce782610c37565b9050602081019050919050565b82818337600083830152505050565b6000610d16610d1184610cc3565b610ca8565b905082815260208101848484011115610d3257610d31610c32565b5b610d3d848285610cf4565b509392505050565b600082601f830112610d5a57610d59610c2d565b5b8135610d6a848260208601610d03565b91505092915050565b60008115159050919050565b610d8881610d73565b8114610d9357600080fd5b50565b600081359050610da581610d7f565b92915050565b600080600060608486031215610dc457610dc3610bed565b5b6000610dd286828701610c18565b935050602084013567ffffffffffffffff811115610df357610df2610bf2565b5b610dff86828701610d45565b9250506040610e1086828701610d96565b9150509250925092565b60008060408385031215610e3157610e30610bed565b5b6000610e3f85828601610c18565b925050602083013567ffffffffffffffff811115610e6057610e5f610bf2565b5b610e6c85828601610d45565b9150509250929050565b600073ffffffffffffffffffffffffffffffffffffffff82169050919050565b6000819050919050565b6000610ebb610eb6610eb184610e76565b610e96565b610e76565b9050919050565b6000610ecd82610ea0565b9050919050565b6000610edf82610ec2565b9050919050565b610eef81610ed4565b82525050565b6000602082019050610f0a6000830184610ee6565b92915050565b610f1981610d73565b82525050565b6000602082019050610f346000830184610f10565b92915050565b6000610f4582610e76565b9050919050565b610f5581610f3a565b8114610f6057600080fd5b50565b600081359050610f7281610f4c565b92915050565b600060208284031215610f8e57610f8d610bed565b5b6000610f9c84828501610f63565b91505092915050565b600060208284031215610fbb57610fba610bed565b5b600082013567ffffffffffffffff811115610fd957610fd8610bf2565b5b610fe584828501610d45565b91505092915050565b610ff781610bf7565b82525050565b60006040820190506110126000830185610fee565b61101f6020830184610f10565b9392505050565b7f4e487b7100000000000000000000000000000000000000000000000000000000600052602160045260246000fd5b600060208201905061106a6000830184610fee565b92915050565b600080fd5b60008151905061108481610c01565b92915050565b6000819050919050565b61109d8161108a565b81146110a857600080fd5b50565b6000815190506110ba81611094565b92915050565b600481106110cd57600080fd5b50565b6000815190506110df816110c0565b92915050565b6000606082840312156110fb576110fa611070565b5b6111056060610ca8565b9050600061111584828501611075565b6000830152506020611129848285016110ab565b602083015250604061113d848285016110d0565b60408301525092915050565b60006060828403121561115f5761115e610bed565b5b600061116d848285016110e5565b91505092915050565b600082825260208201905092915050565b7f4f6e6c7920612072656769737465726564206d656d626572206861732074686560008201527f2061636365737300000000000000000000000000000000000000000000000000602082015250565b60006111e3602783611176565b91506111ee82611187565b604082019050919050565b60006020820190508181036000830152611212816111d6565b9050919050565b60008151905061122881610f4c565b92915050565b60006020828403121561124457611243610bed565b5b600061125284828501611219565b91505092915050565b7f4f6e6c7920746865206f776e65722063616e2075706c6f616420646174610000600082015250565b6000611291601e83611176565b915061129c8261125b565b602082019050919050565b600060208201905081810360008301526112c081611284565b9050919050565b600081519050919050565b600081905092915050565b60005b838110156112fb5780820151818401526020810190506112e0565b60008484015250505050565b6000611312826112c7565b61131c81856112d2565b935061132c8185602086016112dd565b80840191505092915050565b60006113448284611307565b915081905092915050565b7f4461746120697320616c72656164792075706c6f616465640000000000000000600082015250565b6000611385601883611176565b91506113908261134f565b602082019050919050565b600060208201905081810360008301526113b481611378565b9050919050565b7f4f6e6c7420746865206f776e65722063616e206772616e742061636365737300600082015250565b60006113f1601f83611176565b91506113fc826113bb565b602082019050919050565b60006020820190508181036000830152611420816113e4565b9050919050565b7f4f6e6c7920746865206f776e65722063616e2076657269667920616363657373600082015250565b600061145d602083611176565b915061146882611427565b602082019050919050565b6000602082019050818103600083015261148c81611450565b9050919050565b7f4e487b7100000000000000000000000000000000000000000000000000000000600052603260045260246000fd5b7f4e487b7100000000000000000000000000000000000000000000000000000000600052601160045260246000fd5b60006114fc82610bf7565b91507fffffffffffffffffffffffffffffffffffffffffffffffffffffffffffffffff820361152e5761152d6114c2565b5b600182019050919050565b61154281610f3a565b82525050565b600060208201905061155d6000830184611539565b9291505056fea2646970667358221220542aa9b4c1f3519c5cf62005f9101eda079130202fad805329ea34ee162f008d64736f6c63430008140033",
  "linkReferences": {},
  "deployedLinkReferences": {}
}