{
  "_format": "hh-sol-artifact-1",
  "contractName": "DataCureAccess",
  "sourceName": "contracts/DataCureAccess.sol",
  "abi": [
    {
      "inputs": [
        {
          "internalType": "contract IDataCure",
          "name": "_dataCureAddr",
          "type": "address"
        }
      ],
      "stateMutability": "nonpayable",
      "type": "constructor"
    },
    {
      "anonymous": false,
      "inputs": [
        {
          "indexed": false,
          "internalType": "uint256",
          "name": "_userToken",
          "type": "uint256"
        },
        {
          "indexed": false,
          "internalType": "bytes32",
          "name": "_cid",
          "type": "bytes32"
        }
      ],
      "name": "GrandAccess",
      "type": "event"
    },
    {
      "anonymous": false,
      "inputs": [
        {
          "indexed": false,
          "internalType": "address",
          "name": "_dataCureAddr",
          "type": "address"
        }
      ],
      "name": "UpdateDataCureAddress",
      "type": "event"
    },
    {
      "anonymous": false,
      "inputs": [
        {
          "indexed": false,
          "internalType": "uint256",
          "name": "_userToken",
          "type": "uint256"
        },
        {
          "indexed": false,
          "internalType": "bytes32",
          "name": "_cid",
          "type": "bytes32"
        }
      ],
      "name": "UploadData",
      "type": "event"
    },
    {
      "inputs": [],
      "name": "_dataCure",
      "outputs": [
        {
          "internalType": "contract IDataCure",
          "name": "",
          "type": "address"
        }
      ],
      "stateMutability": "view",
      "type": "function"
    },
    {
      "inputs": [
        {
          "internalType": "bytes32",
          "name": "",
          "type": "bytes32"
        }
      ],
      "name": "accessListByCid",
      "outputs": [
        {
          "internalType": "uint256",
          "name": "ownerToken",
          "type": "uint256"
        }
      ],
      "stateMutability": "view",
      "type": "function"
    },
    {
      "inputs": [
        {
          "internalType": "uint256",
          "name": "_userToken",
          "type": "uint256"
        },
        {
          "internalType": "bytes32",
          "name": "_cid",
          "type": "bytes32"
        }
      ],
      "name": "grandAccess",
      "outputs": [],
      "stateMutability": "nonpayable",
      "type": "function"
    },
    {
      "inputs": [
        {
          "internalType": "address",
          "name": "_dataCureAddr",
          "type": "address"
        }
      ],
      "name": "updateDataCureFactory",
      "outputs": [],
      "stateMutability": "nonpayable",
      "type": "function"
    },
    {
      "inputs": [
        {
          "internalType": "uint256",
          "name": "_userToken",
          "type": "uint256"
        },
        {
          "internalType": "bytes32",
          "name": "_cid",
          "type": "bytes32"
        }
      ],
      "name": "uploadData",
      "outputs": [],
      "stateMutability": "nonpayable",
      "type": "function"
    },
    {
      "inputs": [
        {
          "internalType": "uint256",
          "name": "_userToken",
          "type": "uint256"
        },
        {
          "internalType": "bytes32",
          "name": "_cid",
          "type": "bytes32"
        }
      ],
      "name": "verifyAccess",
      "outputs": [
        {
          "internalType": "bool",
          "name": "",
          "type": "bool"
        }
      ],
      "stateMutability": "view",
      "type": "function"
    }
  ],
  "bytecode": "0x60806040523480156200001157600080fd5b5060405162001403380380620014038339818101604052810190620000379190620000fd565b80600160006101000a81548173ffffffffffffffffffffffffffffffffffffffff021916908373ffffffffffffffffffffffffffffffffffffffff160217905550506200012f565b600080fd5b600073ffffffffffffffffffffffffffffffffffffffff82169050919050565b6000620000b18262000084565b9050919050565b6000620000c582620000a4565b9050919050565b620000d781620000b8565b8114620000e357600080fd5b50565b600081519050620000f781620000cc565b92915050565b6000602082840312156200011657620001156200007f565b5b60006200012684828501620000e6565b91505092915050565b6112c4806200013f6000396000f3fe608060405234801561001057600080fd5b50600436106100625760003560e01c8063064e74c91461006757806325a0a9db14610083578063428e9cc6146100b357806386240f81146100d1578063b65aa19c146100ed578063e363130e1461011d575b600080fd5b610081600480360381019061007c9190610b7f565b610139565b005b61009d60048036038101906100989190610bbf565b610350565b6040516100aa9190610bfb565b60405180910390f35b6100bb61036e565b6040516100c89190610c95565b60405180910390f35b6100eb60048036038101906100e69190610cee565b610394565b005b61010760048036038101906101029190610b7f565b61040f565b6040516101149190610d36565b60405180910390f35b61013760048036038101906101329190610b7f565b610620565b005b6001600381111561014d5761014c610d51565b5b600160009054906101000a900473ffffffffffffffffffffffffffffffffffffffff1673ffffffffffffffffffffffffffffffffffffffff166385af4777846040518263ffffffff1660e01b81526004016101a89190610bfb565b606060405180830381865afa1580156101c5573d6000803e3d6000fd5b505050506040513d601f19601f820116820180604052508101906101e99190610ec4565b6040015160038111156101ff576101fe610d51565b5b1461023f576040517f08c379a000000000000000000000000000000000000000000000000000000000815260040161023690610f74565b60405180910390fd5b816000808381526020019081526020016000206000015414610296576040517f08c379a000000000000000000000000000000000000000000000000000000000815260040161028d90610fe0565b60405180910390fd5b6000808281526020019081526020016000206001016102b3610afc565b9080600181540180825580915050600190039060005260206000200160009091909190916101000a81548173ffffffffffffffffffffffffffffffffffffffff021916908373ffffffffffffffffffffffffffffffffffffffff1602179055507fdf8ccca398426608c8a29f1440eab9776c8b5609a6a7fe76526d173f544c54ce828260405161034492919061100f565b60405180910390a15050565b60006020528060005260406000206000915090508060000154905081565b600160009054906101000a900473ffffffffffffffffffffffffffffffffffffffff1681565b80600160006101000a81548173ffffffffffffffffffffffffffffffffffffffff021916908373ffffffffffffffffffffffffffffffffffffffff1602179055507f88e5ee09a3a55f83d04e49bcb2c95bef29ec12bd1b1e6e237202d6b6851966f8816040516104049190611047565b60405180910390a150565b600080600160009054906101000a900473ffffffffffffffffffffffffffffffffffffffff1673ffffffffffffffffffffffffffffffffffffffff166385af4777856040518263ffffffff1660e01b815260040161046d9190610bfb565b606060405180830381865afa15801561048a573d6000803e3d6000fd5b505050506040513d601f19601f820116820180604052508101906104ae9190610ec4565b60000151036104f2576040517f08c379a00000000000000000000000000000000000000000000000000000000081526004016104e990610f74565b60405180910390fd5b826000808481526020019081526020016000206000015414610549576040517f08c379a0000000000000000000000000000000000000000000000000000000008152600401610540906110ae565b60405180910390fd5b60005b6000808481526020019081526020016000206001018054905081101561061457610574610afc565b73ffffffffffffffffffffffffffffffffffffffff1660008085815260200190815260200160002060010182815481106105b1576105b06110ce565b5b9060005260206000200160009054906101000a900473ffffffffffffffffffffffffffffffffffffffff1673ffffffffffffffffffffffffffffffffffffffff160361060157600191505061061a565b808061060c9061112c565b91505061054c565b50600090505b92915050565b6001600381111561063457610633610d51565b5b600160009054906101000a900473ffffffffffffffffffffffffffffffffffffffff1673ffffffffffffffffffffffffffffffffffffffff166385af4777846040518263ffffffff1660e01b815260040161068f9190610bfb565b606060405180830381865afa1580156106ac573d6000803e3d6000fd5b505050506040513d601f19601f820116820180604052508101906106d09190610ec4565b6040015160038111156106e6576106e5610d51565b5b14806107b557506002600381111561070157610700610d51565b5b600160009054906101000a900473ffffffffffffffffffffffffffffffffffffffff1673ffffffffffffffffffffffffffffffffffffffff166385af4777846040518263ffffffff1660e01b815260040161075c9190610bfb565b606060405180830381865afa158015610779573d6000803e3d6000fd5b505050506040513d601f19601f8201168201806040525081019061079d9190610ec4565b6040015160038111156107b3576107b2610d51565b5b145b6107f4576040517f08c379a00000000000000000000000000000000000000000000000000000000081526004016107eb90610f74565b60405180910390fd5b6001600381111561080857610807610d51565b5b600160009054906101000a900473ffffffffffffffffffffffffffffffffffffffff1673ffffffffffffffffffffffffffffffffffffffff166385af4777846040518263ffffffff1660e01b81526004016108639190610bfb565b606060405180830381865afa158015610880573d6000803e3d6000fd5b505050506040513d601f19601f820116820180604052508101906108a49190610ec4565b6040015160038111156108ba576108b9610d51565b5b036109d0576108c7610afc565b73ffffffffffffffffffffffffffffffffffffffff16600160009054906101000a900473ffffffffffffffffffffffffffffffffffffffff1673ffffffffffffffffffffffffffffffffffffffff16636352211e846040518263ffffffff1660e01b81526004016109389190610bfb565b602060405180830381865afa158015610955573d6000803e3d6000fd5b505050506040513d601f19601f820116820180604052508101906109799190611189565b73ffffffffffffffffffffffffffffffffffffffff16146109cf576040517f08c379a00000000000000000000000000000000000000000000000000000000081526004016109c690611202565b60405180910390fd5b5b60008060008381526020019081526020016000206000015414610a28576040517f08c379a0000000000000000000000000000000000000000000000000000000008152600401610a1f9061126e565b60405180910390fd5b8160008083815260200190815260200160002060000181905550600080828152602001908152602001600020600101610a5f610afc565b9080600181540180825580915050600190039060005260206000200160009091909190916101000a81548173ffffffffffffffffffffffffffffffffffffffff021916908373ffffffffffffffffffffffffffffffffffffffff1602179055507f0e1a6ed43fc0d834640cce5fbe2286ac3b3ae6adfaad5a6dc13d4897dcfd091b8282604051610af092919061100f565b60405180910390a15050565b600033905090565b6000604051905090565b600080fd5b6000819050919050565b610b2681610b13565b8114610b3157600080fd5b50565b600081359050610b4381610b1d565b92915050565b6000819050919050565b610b5c81610b49565b8114610b6757600080fd5b50565b600081359050610b7981610b53565b92915050565b60008060408385031215610b9657610b95610b0e565b5b6000610ba485828601610b34565b9250506020610bb585828601610b6a565b9150509250929050565b600060208284031215610bd557610bd4610b0e565b5b6000610be384828501610b6a565b91505092915050565b610bf581610b13565b82525050565b6000602082019050610c106000830184610bec565b92915050565b600073ffffffffffffffffffffffffffffffffffffffff82169050919050565b6000819050919050565b6000610c5b610c56610c5184610c16565b610c36565b610c16565b9050919050565b6000610c6d82610c40565b9050919050565b6000610c7f82610c62565b9050919050565b610c8f81610c74565b82525050565b6000602082019050610caa6000830184610c86565b92915050565b6000610cbb82610c16565b9050919050565b610ccb81610cb0565b8114610cd657600080fd5b50565b600081359050610ce881610cc2565b92915050565b600060208284031215610d0457610d03610b0e565b5b6000610d1284828501610cd9565b91505092915050565b60008115159050919050565b610d3081610d1b565b82525050565b6000602082019050610d4b6000830184610d27565b92915050565b7f4e487b7100000000000000000000000000000000000000000000000000000000600052602160045260246000fd5b600080fd5b6000601f19601f8301169050919050565b7f4e487b7100000000000000000000000000000000000000000000000000000000600052604160045260246000fd5b610dce82610d85565b810181811067ffffffffffffffff82111715610ded57610dec610d96565b5b80604052505050565b6000610e00610b04565b9050610e0c8282610dc5565b919050565b600081519050610e2081610b1d565b92915050565b600081519050610e3581610b53565b92915050565b60048110610e4857600080fd5b50565b600081519050610e5a81610e3b565b92915050565b600060608284031215610e7657610e75610d80565b5b610e806060610df6565b90506000610e9084828501610e11565b6000830152506020610ea484828501610e26565b6020830152506040610eb884828501610e4b565b60408301525092915050565b600060608284031215610eda57610ed9610b0e565b5b6000610ee884828501610e60565b91505092915050565b600082825260208201905092915050565b7f4f6e6c7920612072656769737465726564206d656d626572206861732074686560008201527f2061636365737300000000000000000000000000000000000000000000000000602082015250565b6000610f5e602783610ef1565b9150610f6982610f02565b604082019050919050565b60006020820190508181036000830152610f8d81610f51565b9050919050565b7f4f6e6c7420746865206f776e65722063616e206772616e742061636365737300600082015250565b6000610fca601f83610ef1565b9150610fd582610f94565b602082019050919050565b60006020820190508181036000830152610ff981610fbd565b9050919050565b61100981610b49565b82525050565b60006040820190506110246000830185610bec565b6110316020830184611000565b9392505050565b61104181610cb0565b82525050565b600060208201905061105c6000830184611038565b92915050565b7f4f6e6c7920746865206f776e65722063616e2076657269667920616363657373600082015250565b6000611098602083610ef1565b91506110a382611062565b602082019050919050565b600060208201905081810360008301526110c78161108b565b9050919050565b7f4e487b7100000000000000000000000000000000000000000000000000000000600052603260045260246000fd5b7f4e487b7100000000000000000000000000000000000000000000000000000000600052601160045260246000fd5b600061113782610b13565b91507fffffffffffffffffffffffffffffffffffffffffffffffffffffffffffffffff8203611169576111686110fd565b5b600182019050919050565b60008151905061118381610cc2565b92915050565b60006020828403121561119f5761119e610b0e565b5b60006111ad84828501611174565b91505092915050565b7f4f6e6c7920746865206f776e65722063616e2075706c6f616420646174610000600082015250565b60006111ec601e83610ef1565b91506111f7826111b6565b602082019050919050565b6000602082019050818103600083015261121b816111df565b9050919050565b7f4461746120697320616c72656164792075706c6f616465640000000000000000600082015250565b6000611258601883610ef1565b915061126382611222565b602082019050919050565b600060208201905081810360008301526112878161124b565b905091905056fea26469706673582212208e1e17e0b10f5f55d515f95f8bee91e1e89eadee024343421ce37a49e6c48d5c64736f6c63430008140033",
  "linkReferences": {},
  "deployedLinkReferences": {}
}