{
  "_format": "hh-sol-artifact-1",
  "contractName": "DataCure",
  "sourceName": "contracts/DataCure.sol",
  "abi": [
    {
      "inputs": [
        {
          "internalType": "contract Verifier",
          "name": "_verifier",
          "type": "address"
        }
      ],
      "stateMutability": "nonpayable",
      "type": "constructor"
    },
    {
      "inputs": [
        {
          "internalType": "address",
          "name": "sender",
          "type": "address"
        },
        {
          "internalType": "uint256",
          "name": "tokenId",
          "type": "uint256"
        },
        {
          "internalType": "address",
          "name": "owner",
          "type": "address"
        }
      ],
      "name": "ERC721IncorrectOwner",
      "type": "error"
    },
    {
      "inputs": [
        {
          "internalType": "address",
          "name": "operator",
          "type": "address"
        },
        {
          "internalType": "uint256",
          "name": "tokenId",
          "type": "uint256"
        }
      ],
      "name": "ERC721InsufficientApproval",
      "type": "error"
    },
    {
      "inputs": [
        {
          "internalType": "address",
          "name": "approver",
          "type": "address"
        }
      ],
      "name": "ERC721InvalidApprover",
      "type": "error"
    },
    {
      "inputs": [
        {
          "internalType": "address",
          "name": "operator",
          "type": "address"
        }
      ],
      "name": "ERC721InvalidOperator",
      "type": "error"
    },
    {
      "inputs": [
        {
          "internalType": "address",
          "name": "owner",
          "type": "address"
        }
      ],
      "name": "ERC721InvalidOwner",
      "type": "error"
    },
    {
      "inputs": [
        {
          "internalType": "address",
          "name": "receiver",
          "type": "address"
        }
      ],
      "name": "ERC721InvalidReceiver",
      "type": "error"
    },
    {
      "inputs": [
        {
          "internalType": "address",
          "name": "sender",
          "type": "address"
        }
      ],
      "name": "ERC721InvalidSender",
      "type": "error"
    },
    {
      "inputs": [
        {
          "internalType": "uint256",
          "name": "tokenId",
          "type": "uint256"
        }
      ],
      "name": "ERC721NonexistentToken",
      "type": "error"
    },
    {
      "anonymous": false,
      "inputs": [
        {
          "indexed": false,
          "internalType": "uint256",
          "name": "_orgTokenId",
          "type": "uint256"
        },
        {
          "indexed": false,
          "internalType": "address",
          "name": "_doctorWalletAddress",
          "type": "address"
        }
      ],
      "name": "AddDoctor",
      "type": "event"
    },
    {
      "anonymous": false,
      "inputs": [
        {
          "indexed": true,
          "internalType": "address",
          "name": "owner",
          "type": "address"
        },
        {
          "indexed": true,
          "internalType": "address",
          "name": "approved",
          "type": "address"
        },
        {
          "indexed": true,
          "internalType": "uint256",
          "name": "tokenId",
          "type": "uint256"
        }
      ],
      "name": "Approval",
      "type": "event"
    },
    {
      "anonymous": false,
      "inputs": [
        {
          "indexed": true,
          "internalType": "address",
          "name": "owner",
          "type": "address"
        },
        {
          "indexed": true,
          "internalType": "address",
          "name": "operator",
          "type": "address"
        },
        {
          "indexed": false,
          "internalType": "bool",
          "name": "approved",
          "type": "bool"
        }
      ],
      "name": "ApprovalForAll",
      "type": "event"
    },
    {
      "anonymous": false,
      "inputs": [
        {
          "indexed": false,
          "internalType": "uint256",
          "name": "_tokenId",
          "type": "uint256"
        },
        {
          "indexed": false,
          "internalType": "enum IDataCure.UserType",
          "name": "_userType",
          "type": "uint8"
        }
      ],
      "name": "PromoteUser",
      "type": "event"
    },
    {
      "anonymous": false,
      "inputs": [
        {
          "indexed": true,
          "internalType": "address",
          "name": "from",
          "type": "address"
        },
        {
          "indexed": true,
          "internalType": "address",
          "name": "to",
          "type": "address"
        },
        {
          "indexed": true,
          "internalType": "uint256",
          "name": "tokenId",
          "type": "uint256"
        }
      ],
      "name": "Transfer",
      "type": "event"
    },
    {
      "inputs": [
        {
          "internalType": "uint256",
          "name": "_orgTokenId",
          "type": "uint256"
        },
        {
          "internalType": "address",
          "name": "_doctorWalletAddress",
          "type": "address"
        }
      ],
      "name": "addDoctor",
      "outputs": [],
      "stateMutability": "nonpayable",
      "type": "function"
    },
    {
      "inputs": [
        {
          "internalType": "address",
          "name": "to",
          "type": "address"
        },
        {
          "internalType": "uint256",
          "name": "tokenId",
          "type": "uint256"
        }
      ],
      "name": "approve",
      "outputs": [],
      "stateMutability": "nonpayable",
      "type": "function"
    },
    {
      "inputs": [
        {
          "internalType": "address",
          "name": "owner",
          "type": "address"
        }
      ],
      "name": "balanceOf",
      "outputs": [
        {
          "internalType": "uint256",
          "name": "",
          "type": "uint256"
        }
      ],
      "stateMutability": "view",
      "type": "function"
    },
    {
      "inputs": [
        {
          "internalType": "uint256",
          "name": "",
          "type": "uint256"
        }
      ],
      "name": "doctorsList",
      "outputs": [
        {
          "internalType": "address",
          "name": "",
          "type": "address"
        }
      ],
      "stateMutability": "view",
      "type": "function"
    },
    {
      "inputs": [
        {
          "internalType": "uint256",
          "name": "tokenId",
          "type": "uint256"
        }
      ],
      "name": "getApproved",
      "outputs": [
        {
          "internalType": "address",
          "name": "",
          "type": "address"
        }
      ],
      "stateMutability": "view",
      "type": "function"
    },
    {
      "inputs": [
        {
          "internalType": "uint256",
          "name": "_tokenId",
          "type": "uint256"
        }
      ],
      "name": "getDoctorsList",
      "outputs": [
        {
          "internalType": "address",
          "name": "",
          "type": "address"
        }
      ],
      "stateMutability": "view",
      "type": "function"
    },
    {
      "inputs": [
        {
          "internalType": "bytes32",
          "name": "_emailHash",
          "type": "bytes32"
        }
      ],
      "name": "getUserToken",
      "outputs": [
        {
          "internalType": "uint256",
          "name": "",
          "type": "uint256"
        }
      ],
      "stateMutability": "view",
      "type": "function"
    },
    {
      "inputs": [
        {
          "internalType": "uint256",
          "name": "_tokenId",
          "type": "uint256"
        }
      ],
      "name": "getUserTokenDetails",
      "outputs": [
        {
          "components": [
            {
              "internalType": "uint256",
              "name": "tokenId",
              "type": "uint256"
            },
            {
              "internalType": "bytes32",
              "name": "ipnsName",
              "type": "bytes32"
            },
            {
              "internalType": "enum IDataCure.UserType",
              "name": "userType",
              "type": "uint8"
            }
          ],
          "internalType": "struct IDataCure.UserDetails",
          "name": "",
          "type": "tuple"
        }
      ],
      "stateMutability": "view",
      "type": "function"
    },
    {
      "inputs": [
        {
          "internalType": "address",
          "name": "owner",
          "type": "address"
        },
        {
          "internalType": "address",
          "name": "operator",
          "type": "address"
        }
      ],
      "name": "isApprovedForAll",
      "outputs": [
        {
          "internalType": "bool",
          "name": "",
          "type": "bool"
        }
      ],
      "stateMutability": "view",
      "type": "function"
    },
    {
      "inputs": [
        {
          "internalType": "uint256",
          "name": "_tokenId",
          "type": "uint256"
        },
        {
          "internalType": "address",
          "name": "_walletAddr",
          "type": "address"
        }
      ],
      "name": "isDoctor",
      "outputs": [
        {
          "internalType": "bool",
          "name": "",
          "type": "bool"
        }
      ],
      "stateMutability": "view",
      "type": "function"
    },
    {
      "inputs": [],
      "name": "name",
      "outputs": [
        {
          "internalType": "string",
          "name": "",
          "type": "string"
        }
      ],
      "stateMutability": "view",
      "type": "function"
    },
    {
      "inputs": [
        {
          "internalType": "uint256",
          "name": "tokenId",
          "type": "uint256"
        }
      ],
      "name": "ownerOf",
      "outputs": [
        {
          "internalType": "address",
          "name": "",
          "type": "address"
        }
      ],
      "stateMutability": "view",
      "type": "function"
    },
    {
      "inputs": [
        {
          "internalType": "uint256",
          "name": "_tokenId",
          "type": "uint256"
        },
        {
          "internalType": "uint8",
          "name": "_userType",
          "type": "uint8"
        }
      ],
      "name": "promoteUser",
      "outputs": [],
      "stateMutability": "nonpayable",
      "type": "function"
    },
    {
      "inputs": [
        {
          "internalType": "bytes32",
          "name": "_emailHash",
          "type": "bytes32"
        },
        {
          "internalType": "uint256[2]",
          "name": "_pA",
          "type": "uint256[2]"
        },
        {
          "internalType": "uint256[2][2]",
          "name": "_pB",
          "type": "uint256[2][2]"
        },
        {
          "internalType": "uint256[2]",
          "name": "_pC",
          "type": "uint256[2]"
        },
        {
          "internalType": "uint256[34]",
          "name": "_pubSignals",
          "type": "uint256[34]"
        },
        {
          "internalType": "bytes32",
          "name": "_ipnsName",
          "type": "bytes32"
        }
      ],
      "name": "safeMint",
      "outputs": [],
      "stateMutability": "nonpayable",
      "type": "function"
    },
    {
      "inputs": [
        {
          "internalType": "address",
          "name": "from",
          "type": "address"
        },
        {
          "internalType": "address",
          "name": "to",
          "type": "address"
        },
        {
          "internalType": "uint256",
          "name": "tokenId",
          "type": "uint256"
        }
      ],
      "name": "safeTransferFrom",
      "outputs": [],
      "stateMutability": "nonpayable",
      "type": "function"
    },
    {
      "inputs": [
        {
          "internalType": "address",
          "name": "from",
          "type": "address"
        },
        {
          "internalType": "address",
          "name": "to",
          "type": "address"
        },
        {
          "internalType": "uint256",
          "name": "tokenId",
          "type": "uint256"
        },
        {
          "internalType": "bytes",
          "name": "data",
          "type": "bytes"
        }
      ],
      "name": "safeTransferFrom",
      "outputs": [],
      "stateMutability": "nonpayable",
      "type": "function"
    },
    {
      "inputs": [
        {
          "internalType": "address",
          "name": "operator",
          "type": "address"
        },
        {
          "internalType": "bool",
          "name": "approved",
          "type": "bool"
        }
      ],
      "name": "setApprovalForAll",
      "outputs": [],
      "stateMutability": "nonpayable",
      "type": "function"
    },
    {
      "inputs": [
        {
          "internalType": "bytes4",
          "name": "interfaceId",
          "type": "bytes4"
        }
      ],
      "name": "supportsInterface",
      "outputs": [
        {
          "internalType": "bool",
          "name": "",
          "type": "bool"
        }
      ],
      "stateMutability": "view",
      "type": "function"
    },
    {
      "inputs": [],
      "name": "symbol",
      "outputs": [
        {
          "internalType": "string",
          "name": "",
          "type": "string"
        }
      ],
      "stateMutability": "view",
      "type": "function"
    },
    {
      "inputs": [
        {
          "internalType": "uint256",
          "name": "tokenId",
          "type": "uint256"
        }
      ],
      "name": "tokenURI",
      "outputs": [
        {
          "internalType": "string",
          "name": "",
          "type": "string"
        }
      ],
      "stateMutability": "view",
      "type": "function"
    },
    {
      "inputs": [
        {
          "internalType": "address",
          "name": "from",
          "type": "address"
        },
        {
          "internalType": "address",
          "name": "to",
          "type": "address"
        },
        {
          "internalType": "uint256",
          "name": "tokenId",
          "type": "uint256"
        }
      ],
      "name": "transferFrom",
      "outputs": [],
      "stateMutability": "nonpayable",
      "type": "function"
    },
    {
      "inputs": [
        {
          "internalType": "bytes32",
          "name": "",
          "type": "bytes32"
        }
      ],
      "name": "userToken",
      "outputs": [
        {
          "internalType": "uint256",
          "name": "",
          "type": "uint256"
        }
      ],
      "stateMutability": "view",
      "type": "function"
    },
    {
      "inputs": [
        {
          "internalType": "uint256",
          "name": "",
          "type": "uint256"
        }
      ],
      "name": "userTokenDetails",
      "outputs": [
        {
          "internalType": "uint256",
          "name": "tokenId",
          "type": "uint256"
        },
        {
          "internalType": "bytes32",
          "name": "ipnsName",
          "type": "bytes32"
        },
        {
          "internalType": "enum IDataCure.UserType",
          "name": "userType",
          "type": "uint8"
        }
      ],
      "stateMutability": "view",
      "type": "function"
    },
    {
      "inputs": [],
      "name": "verifier",
      "outputs": [
        {
          "internalType": "contract Verifier",
          "name": "",
          "type": "address"
        }
      ],
      "stateMutability": "view",
      "type": "function"
    }
  ],
  "bytecode": "0x60806040523480156200001157600080fd5b5060405162003816380380620038168339818101604052810190620000379190620001e7565b6040518060400160405280600d81526020017f4461746143757265546f6b656e000000000000000000000000000000000000008152506040518060400160405280600381526020017f44435400000000000000000000000000000000000000000000000000000000008152508160009081620000b4919062000493565b508060019081620000c6919062000493565b50505080600860006101000a81548173ffffffffffffffffffffffffffffffffffffffff021916908373ffffffffffffffffffffffffffffffffffffffff1602179055506200011a6200016160201b60201c565b600660006101000a81548173ffffffffffffffffffffffffffffffffffffffff021916908373ffffffffffffffffffffffffffffffffffffffff160217905550506200057a565b600033905090565b600080fd5b600073ffffffffffffffffffffffffffffffffffffffff82169050919050565b60006200019b826200016e565b9050919050565b6000620001af826200018e565b9050919050565b620001c181620001a2565b8114620001cd57600080fd5b50565b600081519050620001e181620001b6565b92915050565b6000602082840312156200020057620001ff62000169565b5b60006200021084828501620001d0565b91505092915050565b600081519050919050565b7f4e487b7100000000000000000000000000000000000000000000000000000000600052604160045260246000fd5b7f4e487b7100000000000000000000000000000000000000000000000000000000600052602260045260246000fd5b600060028204905060018216806200029b57607f821691505b602082108103620002b157620002b062000253565b5b50919050565b60008190508160005260206000209050919050565b60006020601f8301049050919050565b600082821b905092915050565b6000600883026200031b7fffffffffffffffffffffffffffffffffffffffffffffffffffffffffffffffff82620002dc565b620003278683620002dc565b95508019841693508086168417925050509392505050565b6000819050919050565b6000819050919050565b6000620003746200036e62000368846200033f565b62000349565b6200033f565b9050919050565b6000819050919050565b620003908362000353565b620003a86200039f826200037b565b848454620002e9565b825550505050565b600090565b620003bf620003b0565b620003cc81848462000385565b505050565b5b81811015620003f457620003e8600082620003b5565b600181019050620003d2565b5050565b601f82111562000443576200040d81620002b7565b6200041884620002cc565b8101602085101562000428578190505b620004406200043785620002cc565b830182620003d1565b50505b505050565b600082821c905092915050565b6000620004686000198460080262000448565b1980831691505092915050565b600062000483838362000455565b9150826002028217905092915050565b6200049e8262000219565b67ffffffffffffffff811115620004ba57620004b962000224565b5b620004c6825462000282565b620004d3828285620003f8565b600060209050601f8311600181146200050b5760008415620004f6578287015190505b62000502858262000475565b86555062000572565b601f1984166200051b86620002b7565b60005b8281101562000545578489015182556001820191506020850194506020810190506200051e565b8683101562000565578489015162000561601f89168262000455565b8355505b6001600288020188555050505b505050505050565b61328c806200058a6000396000f3fe608060405234801561001057600080fd5b50600436106101585760003560e01c8063709898c0116100c3578063a22cb4651161007c578063a22cb46514610423578063b88d4fde1461043f578063c87b56dd1461045b578063dc684bb51461048b578063e985e9c5146104a7578063ea352f2e146104d757610158565b8063709898c01461031557806370a082311461034557806385af4777146103755780638c427bdb146103a557806395d89b41146103d55780639aee5a1f146103f357610158565b80632b7ac3f3116101155780632b7ac3f3146102435780632e48d2d01461026157806332eb78f31461029157806342842e0e146102ad5780636352211e146102c957806365c016ea146102f957610158565b806301ffc9a71461015d57806306fdde031461018d578063081812fc146101ab578063095ea7b3146101db57806315567e88146101f757806323b872dd14610227575b600080fd5b61017760048036038101906101729190612122565b610509565b604051610184919061216a565b60405180910390f35b6101956105eb565b6040516101a29190612215565b60405180910390f35b6101c560048036038101906101c0919061226d565b61067d565b6040516101d291906122db565b60405180910390f35b6101f560048036038101906101f09190612322565b610699565b005b610211600480360381019061020c919061226d565b6106af565b60405161021e91906122db565b60405180910390f35b610241600480360381019061023c9190612362565b6106ec565b005b61024b6107ee565b6040516102589190612414565b60405180910390f35b61027b60048036038101906102769190612465565b610814565b60405161028891906124a1565b60405180910390f35b6102ab60048036038101906102a691906124bc565b61082c565b005b6102c760048036038101906102c29190612362565b6109f6565b005b6102e360048036038101906102de919061226d565b610a16565b6040516102f091906122db565b60405180910390f35b610313600480360381019061030e9190612567565b610a28565b005b61032f600480360381019061032a919061226d565b610c8f565b60405161033c91906122db565b60405180910390f35b61035f600480360381019061035a91906125f7565b610cc2565b60405161036c91906124a1565b60405180910390f35b61038f600480360381019061038a919061226d565b610d7c565b60405161039c91906126fb565b60405180910390f35b6103bf60048036038101906103ba91906124bc565b610df8565b6040516103cc919061216a565b60405180910390f35b6103dd610e64565b6040516103ea9190612215565b60405180910390f35b61040d60048036038101906104089190612465565b610ef6565b60405161041a91906124a1565b60405180910390f35b61043d60048036038101906104389190612742565b610f13565b005b610459600480360381019061045491906128b7565b610f29565b005b6104756004803603810190610470919061226d565b610f46565b6040516104829190612215565b60405180910390f35b6104a560048036038101906104a09190612973565b610faf565b005b6104c160048036038101906104bc91906129b3565b611184565b6040516104ce919061216a565b60405180910390f35b6104f160048036038101906104ec919061226d565b611218565b60405161050093929190612a11565b60405180910390f35b60007f80ac58cd000000000000000000000000000000000000000000000000000000007bffffffffffffffffffffffffffffffffffffffffffffffffffffffff1916827bffffffffffffffffffffffffffffffffffffffffffffffffffffffff191614806105d457507f5b5e139f000000000000000000000000000000000000000000000000000000007bffffffffffffffffffffffffffffffffffffffffffffffffffffffff1916827bffffffffffffffffffffffffffffffffffffffffffffffffffffffff1916145b806105e457506105e38261124f565b5b9050919050565b6060600080546105fa90612a77565b80601f016020809104026020016040519081016040528092919081815260200182805461062690612a77565b80156106735780601f1061064857610100808354040283529160200191610673565b820191906000526020600020905b81548152906001019060200180831161065657829003601f168201915b5050505050905090565b6000610688826112b9565b5061069282611341565b9050919050565b6106ab82826106a661137e565b611386565b5050565b6000600b600083815260200190815260200160002060009054906101000a900473ffffffffffffffffffffffffffffffffffffffff169050919050565b600073ffffffffffffffffffffffffffffffffffffffff168273ffffffffffffffffffffffffffffffffffffffff160361075e5760006040517f64a0ae9200000000000000000000000000000000000000000000000000000000815260040161075591906122db565b60405180910390fd5b6000610772838361076d61137e565b611398565b90508373ffffffffffffffffffffffffffffffffffffffff168173ffffffffffffffffffffffffffffffffffffffff16146107e8578382826040517f64283d7b0000000000000000000000000000000000000000000000000000000081526004016107df93929190612aa8565b60405180910390fd5b50505050565b600860009054906101000a900473ffffffffffffffffffffffffffffffffffffffff1681565b60096020528060005260406000206000915090505481565b600260038111156108405761083f612642565b5b600a600084815260200190815260200160002060020160009054906101000a900460ff16600381111561087657610875612642565b5b146108b6576040517f08c379a00000000000000000000000000000000000000000000000000000000081526004016108ad90612b2b565b60405180910390fd5b600082036108f9576040517f08c379a00000000000000000000000000000000000000000000000000000000081526004016108f090612b97565b60405180910390fd5b600073ffffffffffffffffffffffffffffffffffffffff168173ffffffffffffffffffffffffffffffffffffffff1603610968576040517f08c379a000000000000000000000000000000000000000000000000000000000815260040161095f90612c03565b60405180910390fd5b80600b600084815260200190815260200160002060006101000a81548173ffffffffffffffffffffffffffffffffffffffff021916908373ffffffffffffffffffffffffffffffffffffffff1602179055507ee6e9a4843329d7b8a201855b35f8d6b2a83f9bcf15c15526ed5b41ebbf05e282826040516109ea929190612c23565b60405180910390a15050565b610a1183838360405180602001604052806000815250610f29565b505050565b6000610a21826112b9565b9050919050565b6000610a3a610a3561137e565b610cc2565b905060008114610a7f576040517f08c379a0000000000000000000000000000000000000000000000000000000008152600401610a7690612c98565b60405180910390fd5b6000600860009054906101000a900473ffffffffffffffffffffffffffffffffffffffff1673ffffffffffffffffffffffffffffffffffffffff16638525a61d888888886040518563ffffffff1660e01b8152600401610ae29493929190612da1565b602060405180830381865afa158015610aff573d6000803e3d6000fd5b505050506040513d601f19601f82011682018060405250810190610b239190612dfd565b905080610b65576040517f08c379a0000000000000000000000000000000000000000000000000000000008152600401610b5c90612e76565b60405180910390fd5b6000600960008a81526020019081526020016000205414610bbb576040517f08c379a0000000000000000000000000000000000000000000000000000000008152600401610bb290612ee2565b60405180910390fd5b610bc5600761142a565b6000610bd16007611440565b905080600960008b815260200190815260200160002081905550604051806060016040528082815260200185815260200160016003811115610c1657610c15612642565b5b815250600a6000838152602001908152602001600020600082015181600001556020820151816001015560408201518160020160006101000a81548160ff02191690836003811115610c6b57610c6a612642565b5b0217905550905050610c84610c7e61137e565b8261144e565b505050505050505050565b600b6020528060005260406000206000915054906101000a900473ffffffffffffffffffffffffffffffffffffffff1681565b60008073ffffffffffffffffffffffffffffffffffffffff168273ffffffffffffffffffffffffffffffffffffffff1603610d355760006040517f89c62b64000000000000000000000000000000000000000000000000000000008152600401610d2c91906122db565b60405180910390fd5b600360008373ffffffffffffffffffffffffffffffffffffffff1673ffffffffffffffffffffffffffffffffffffffff168152602001908152602001600020549050919050565b610d84612080565b600a600083815260200190815260200160002060405180606001604052908160008201548152602001600182015481526020016002820160009054906101000a900460ff166003811115610ddb57610dda612642565b5b6003811115610ded57610dec612642565b5b815250509050919050565b60008173ffffffffffffffffffffffffffffffffffffffff16600b600085815260200190815260200160002060009054906101000a900473ffffffffffffffffffffffffffffffffffffffff1673ffffffffffffffffffffffffffffffffffffffff1614905092915050565b606060018054610e7390612a77565b80601f0160208091040260200160405190810160405280929190818152602001828054610e9f90612a77565b8015610eec5780601f10610ec157610100808354040283529160200191610eec565b820191906000526020600020905b815481529060010190602001808311610ecf57829003601f168201915b5050505050905090565b600060096000838152602001908152602001600020549050919050565b610f25610f1e61137e565b838361146c565b5050565b610f348484846106ec565b610f40848484846115db565b50505050565b6060610f51826112b9565b506000610f5c611792565b90506000815111610f7c5760405180602001604052806000815250610fa7565b80610f86846117a9565b604051602001610f97929190612f3e565b6040516020818303038152906040525b915050919050565b600660009054906101000a900473ffffffffffffffffffffffffffffffffffffffff1673ffffffffffffffffffffffffffffffffffffffff16610ff061137e565b73ffffffffffffffffffffffffffffffffffffffff1614611046576040517f08c379a000000000000000000000000000000000000000000000000000000000815260040161103d90612fd4565b60405180910390fd5b60008203611089576040517f08c379a000000000000000000000000000000000000000000000000000000000815260040161108090612b97565b60405180910390fd5b60008160ff161180156110a0575060048160ff1611155b6110df576040517f08c379a00000000000000000000000000000000000000000000000000000000081526004016110d690613040565b60405180910390fd5b8060ff1660038111156110f5576110f4612642565b5b600a600084815260200190815260200160002060020160006101000a81548160ff0219169083600381111561112d5761112c612642565b5b02179055507f50b10cbf472cf94a82a78c7b8c9c1e5cc4446b1730ce9f9cba9edba32e04dabc828260ff16600381111561116a57611169612642565b5b604051611178929190613060565b60405180910390a15050565b6000600560008473ffffffffffffffffffffffffffffffffffffffff1673ffffffffffffffffffffffffffffffffffffffff16815260200190815260200160002060008373ffffffffffffffffffffffffffffffffffffffff1673ffffffffffffffffffffffffffffffffffffffff16815260200190815260200160002060009054906101000a900460ff16905092915050565b600a6020528060005260406000206000915090508060000154908060010154908060020160009054906101000a900460ff16905083565b60007f01ffc9a7000000000000000000000000000000000000000000000000000000007bffffffffffffffffffffffffffffffffffffffffffffffffffffffff1916827bffffffffffffffffffffffffffffffffffffffffffffffffffffffff1916149050919050565b6000806112c583611877565b9050600073ffffffffffffffffffffffffffffffffffffffff168173ffffffffffffffffffffffffffffffffffffffff160361133857826040517f7e27328900000000000000000000000000000000000000000000000000000000815260040161132f91906124a1565b60405180910390fd5b80915050919050565b60006004600083815260200190815260200160002060009054906101000a900473ffffffffffffffffffffffffffffffffffffffff169050919050565b600033905090565b61139383838360016118b4565b505050565b6000806113a484611877565b9050600073ffffffffffffffffffffffffffffffffffffffff168173ffffffffffffffffffffffffffffffffffffffff1614611415576040517f08c379a000000000000000000000000000000000000000000000000000000000815260040161140c906130fb565b60405180910390fd5b611420858585611a79565b9150509392505050565b6001816000016000828254019250508190555050565b600081600001549050919050565b611468828260405180602001604052806000815250611c93565b5050565b600073ffffffffffffffffffffffffffffffffffffffff168273ffffffffffffffffffffffffffffffffffffffff16036114dd57816040517f5b08ba180000000000000000000000000000000000000000000000000000000081526004016114d491906122db565b60405180910390fd5b80600560008573ffffffffffffffffffffffffffffffffffffffff1673ffffffffffffffffffffffffffffffffffffffff16815260200190815260200160002060008473ffffffffffffffffffffffffffffffffffffffff1673ffffffffffffffffffffffffffffffffffffffff16815260200190815260200160002060006101000a81548160ff0219169083151502179055508173ffffffffffffffffffffffffffffffffffffffff168373ffffffffffffffffffffffffffffffffffffffff167f17307eab39ab6107e8899845ad3d59bd9653f200f220920489ca2b5937696c31836040516115ce919061216a565b60405180910390a3505050565b60008373ffffffffffffffffffffffffffffffffffffffff163b111561178c578273ffffffffffffffffffffffffffffffffffffffff1663150b7a0261161f61137e565b8685856040518563ffffffff1660e01b81526004016116419493929190613170565b6020604051808303816000875af192505050801561167d57506040513d601f19601f8201168201806040525081019061167a91906131d1565b60015b611701573d80600081146116ad576040519150601f19603f3d011682016040523d82523d6000602084013e6116b2565b606091505b5060008151036116f957836040517f64a0ae920000000000000000000000000000000000000000000000000000000081526004016116f091906122db565b60405180910390fd5b805181602001fd5b63150b7a0260e01b7bffffffffffffffffffffffffffffffffffffffffffffffffffffffff1916817bffffffffffffffffffffffffffffffffffffffffffffffffffffffff19161461178a57836040517f64a0ae9200000000000000000000000000000000000000000000000000000000815260040161178191906122db565b60405180910390fd5b505b50505050565b606060405180602001604052806000815250905090565b6060600060016117b884611caf565b01905060008167ffffffffffffffff8111156117d7576117d661278c565b5b6040519080825280601f01601f1916602001820160405280156118095781602001600182028036833780820191505090505b509050600082602001820190505b60011561186c578080600190039150507f3031323334353637383961626364656600000000000000000000000000000000600a86061a8153600a85816118605761185f6131fe565b5b04945060008503611817575b819350505050919050565b60006002600083815260200190815260200160002060009054906101000a900473ffffffffffffffffffffffffffffffffffffffff169050919050565b80806118ed5750600073ffffffffffffffffffffffffffffffffffffffff168273ffffffffffffffffffffffffffffffffffffffff1614155b15611a215760006118fd846112b9565b9050600073ffffffffffffffffffffffffffffffffffffffff168373ffffffffffffffffffffffffffffffffffffffff161415801561196857508273ffffffffffffffffffffffffffffffffffffffff168173ffffffffffffffffffffffffffffffffffffffff1614155b801561197b57506119798184611184565b155b156119bd57826040517fa9fbf51f0000000000000000000000000000000000000000000000000000000081526004016119b491906122db565b60405180910390fd5b8115611a1f57838573ffffffffffffffffffffffffffffffffffffffff168273ffffffffffffffffffffffffffffffffffffffff167f8c5be1e5ebec7d5bd14f71427d1e84f3dd0314c0f7b2291e5b200ac8c7c3b92560405160405180910390a45b505b836004600085815260200190815260200160002060006101000a81548173ffffffffffffffffffffffffffffffffffffffff021916908373ffffffffffffffffffffffffffffffffffffffff16021790555050505050565b600080611a8584611877565b9050600073ffffffffffffffffffffffffffffffffffffffff168373ffffffffffffffffffffffffffffffffffffffff1614611ac757611ac6818486611e02565b5b600073ffffffffffffffffffffffffffffffffffffffff168173ffffffffffffffffffffffffffffffffffffffff1614611b5857611b096000856000806118b4565b6001600360008373ffffffffffffffffffffffffffffffffffffffff1673ffffffffffffffffffffffffffffffffffffffff168152602001908152602001600020600082825403925050819055505b600073ffffffffffffffffffffffffffffffffffffffff168573ffffffffffffffffffffffffffffffffffffffff1614611bdb576001600360008773ffffffffffffffffffffffffffffffffffffffff1673ffffffffffffffffffffffffffffffffffffffff168152602001908152602001600020600082825401925050819055505b846002600086815260200190815260200160002060006101000a81548173ffffffffffffffffffffffffffffffffffffffff021916908373ffffffffffffffffffffffffffffffffffffffff160217905550838573ffffffffffffffffffffffffffffffffffffffff168273ffffffffffffffffffffffffffffffffffffffff167fddf252ad1be2c89b69c2b068fc378daa952ba7f163c4a11628f55a4df523b3ef60405160405180910390a4809150509392505050565b611c9d8383611ec6565b611caa60008484846115db565b505050565b600080600090507a184f03e93ff9f4daa797ed6e38ed64bf6a1f0100000000000000008310611d0d577a184f03e93ff9f4daa797ed6e38ed64bf6a1f0100000000000000008381611d0357611d026131fe565b5b0492506040810190505b6d04ee2d6d415b85acef81000000008310611d4a576d04ee2d6d415b85acef81000000008381611d4057611d3f6131fe565b5b0492506020810190505b662386f26fc100008310611d7957662386f26fc100008381611d6f57611d6e6131fe565b5b0492506010810190505b6305f5e1008310611da2576305f5e1008381611d9857611d976131fe565b5b0492506008810190505b6127108310611dc7576127108381611dbd57611dbc6131fe565b5b0492506004810190505b60648310611dea5760648381611de057611ddf6131fe565b5b0492506002810190505b600a8310611df9576001810190505b80915050919050565b611e0d838383611fbf565b611ec157600073ffffffffffffffffffffffffffffffffffffffff168373ffffffffffffffffffffffffffffffffffffffff1603611e8257806040517f7e273289000000000000000000000000000000000000000000000000000000008152600401611e7991906124a1565b60405180910390fd5b81816040517f177e802f000000000000000000000000000000000000000000000000000000008152600401611eb892919061322d565b60405180910390fd5b505050565b600073ffffffffffffffffffffffffffffffffffffffff168273ffffffffffffffffffffffffffffffffffffffff1603611f385760006040517f64a0ae92000000000000000000000000000000000000000000000000000000008152600401611f2f91906122db565b60405180910390fd5b6000611f4683836000611398565b9050600073ffffffffffffffffffffffffffffffffffffffff168173ffffffffffffffffffffffffffffffffffffffff1614611fba5760006040517f73c6ac6e000000000000000000000000000000000000000000000000000000008152600401611fb191906122db565b60405180910390fd5b505050565b60008073ffffffffffffffffffffffffffffffffffffffff168373ffffffffffffffffffffffffffffffffffffffff161415801561207757508273ffffffffffffffffffffffffffffffffffffffff168473ffffffffffffffffffffffffffffffffffffffff16148061203857506120378484611184565b5b8061207657508273ffffffffffffffffffffffffffffffffffffffff1661205e83611341565b73ffffffffffffffffffffffffffffffffffffffff16145b5b90509392505050565b60405180606001604052806000815260200160008019168152602001600060038111156120b0576120af612642565b5b81525090565b6000604051905090565b600080fd5b600080fd5b60007fffffffff0000000000000000000000000000000000000000000000000000000082169050919050565b6120ff816120ca565b811461210a57600080fd5b50565b60008135905061211c816120f6565b92915050565b600060208284031215612138576121376120c0565b5b60006121468482850161210d565b91505092915050565b60008115159050919050565b6121648161214f565b82525050565b600060208201905061217f600083018461215b565b92915050565b600081519050919050565b600082825260208201905092915050565b60005b838110156121bf5780820151818401526020810190506121a4565b60008484015250505050565b6000601f19601f8301169050919050565b60006121e782612185565b6121f18185612190565b93506122018185602086016121a1565b61220a816121cb565b840191505092915050565b6000602082019050818103600083015261222f81846121dc565b905092915050565b6000819050919050565b61224a81612237565b811461225557600080fd5b50565b60008135905061226781612241565b92915050565b600060208284031215612283576122826120c0565b5b600061229184828501612258565b91505092915050565b600073ffffffffffffffffffffffffffffffffffffffff82169050919050565b60006122c58261229a565b9050919050565b6122d5816122ba565b82525050565b60006020820190506122f060008301846122cc565b92915050565b6122ff816122ba565b811461230a57600080fd5b50565b60008135905061231c816122f6565b92915050565b60008060408385031215612339576123386120c0565b5b60006123478582860161230d565b925050602061235885828601612258565b9150509250929050565b60008060006060848603121561237b5761237a6120c0565b5b60006123898682870161230d565b935050602061239a8682870161230d565b92505060406123ab86828701612258565b9150509250925092565b6000819050919050565b60006123da6123d56123d08461229a565b6123b5565b61229a565b9050919050565b60006123ec826123bf565b9050919050565b60006123fe826123e1565b9050919050565b61240e816123f3565b82525050565b60006020820190506124296000830184612405565b92915050565b6000819050919050565b6124428161242f565b811461244d57600080fd5b50565b60008135905061245f81612439565b92915050565b60006020828403121561247b5761247a6120c0565b5b600061248984828501612450565b91505092915050565b61249b81612237565b82525050565b60006020820190506124b66000830184612492565b92915050565b600080604083850312156124d3576124d26120c0565b5b60006124e185828601612258565b92505060206124f28582860161230d565b9150509250929050565b600080fd5b60008190508260206002028201111561251d5761251c6124fc565b5b92915050565b60008190508260406002028201111561253f5761253e6124fc565b5b92915050565b600081905082602060220282011115612561576125606124fc565b5b92915050565b6000806000806000806105808789031215612585576125846120c0565b5b600061259389828a01612450565b96505060206125a489828a01612501565b95505060606125b589828a01612523565b94505060e06125c689828a01612501565b9350506101206125d889828a01612545565b9250506105606125ea89828a01612450565b9150509295509295509295565b60006020828403121561260d5761260c6120c0565b5b600061261b8482850161230d565b91505092915050565b61262d81612237565b82525050565b61263c8161242f565b82525050565b7f4e487b7100000000000000000000000000000000000000000000000000000000600052602160045260246000fd5b6004811061268257612681612642565b5b50565b600081905061269382612671565b919050565b60006126a382612685565b9050919050565b6126b381612698565b82525050565b6060820160008201516126cf6000850182612624565b5060208201516126e26020850182612633565b5060408201516126f560408501826126aa565b50505050565b600060608201905061271060008301846126b9565b92915050565b61271f8161214f565b811461272a57600080fd5b50565b60008135905061273c81612716565b92915050565b60008060408385031215612759576127586120c0565b5b60006127678582860161230d565b92505060206127788582860161272d565b9150509250929050565b600080fd5b600080fd5b7f4e487b7100000000000000000000000000000000000000000000000000000000600052604160045260246000fd5b6127c4826121cb565b810181811067ffffffffffffffff821117156127e3576127e261278c565b5b80604052505050565b60006127f66120b6565b905061280282826127bb565b919050565b600067ffffffffffffffff8211156128225761282161278c565b5b61282b826121cb565b9050602081019050919050565b82818337600083830152505050565b600061285a61285584612807565b6127ec565b90508281526020810184848401111561287657612875612787565b5b612881848285612838565b509392505050565b600082601f83011261289e5761289d612782565b5b81356128ae848260208601612847565b91505092915050565b600080600080608085870312156128d1576128d06120c0565b5b60006128df8782880161230d565b94505060206128f08782880161230d565b935050604061290187828801612258565b925050606085013567ffffffffffffffff811115612922576129216120c5565b5b61292e87828801612889565b91505092959194509250565b600060ff82169050919050565b6129508161293a565b811461295b57600080fd5b50565b60008135905061296d81612947565b92915050565b6000806040838503121561298a576129896120c0565b5b600061299885828601612258565b92505060206129a98582860161295e565b9150509250929050565b600080604083850312156129ca576129c96120c0565b5b60006129d88582860161230d565b92505060206129e98582860161230d565b9150509250929050565b6129fc8161242f565b82525050565b612a0b81612698565b82525050565b6000606082019050612a266000830186612492565b612a3360208301856129f3565b612a406040830184612a02565b949350505050565b7f4e487b7100000000000000000000000000000000000000000000000000000000600052602260045260246000fd5b60006002820490506001821680612a8f57607f821691505b602082108103612aa257612aa1612a48565b5b50919050565b6000606082019050612abd60008301866122cc565b612aca6020830185612492565b612ad760408301846122cc565b949350505050565b7f4f6e6c79206f7267616e697a6174696f6e2063616e2061646420646f63746f72600082015250565b6000612b15602083612190565b9150612b2082612adf565b602082019050919050565b60006020820190508181036000830152612b4481612b08565b9050919050565b7f496e76616c696420746f6b656e20494400000000000000000000000000000000600082015250565b6000612b81601083612190565b9150612b8c82612b4b565b602082019050919050565b60006020820190508181036000830152612bb081612b74565b9050919050565b7f496e76616c69642077616c6c6574206164647265737300000000000000000000600082015250565b6000612bed601683612190565b9150612bf882612bb7565b602082019050919050565b60006020820190508181036000830152612c1c81612be0565b9050919050565b6000604082019050612c386000830185612492565b612c4560208301846122cc565b9392505050565b7f20596f75206f776e20536f756c626f756e6420746f6b656e20616c7265616479600082015250565b6000612c82602083612190565b9150612c8d82612c4c565b602082019050919050565b60006020820190508181036000830152612cb181612c75565b9050919050565b82818337505050565b612ccd60408383612cb8565b5050565b600060029050919050565b600081905092915050565b6000819050919050565b612cfd60408383612cb8565b5050565b6000612d0d8383612cf1565b60408301905092915050565b600082905092915050565b6000604082019050919050565b612d3a81612cd1565b612d448184612cdc565b9250612d4f82612ce7565b8060005b83811015612d8857612d658284612d19565b612d6f8782612d01565b9650612d7a83612d24565b925050600181019050612d53565b505050505050565b612d9d6104408383612cb8565b5050565b600061054082019050612db76000830187612cc1565b612dc46040830186612d31565b612dd160c0830185612cc1565b612ddf610100830184612d90565b95945050505050565b600081519050612df781612716565b92915050565b600060208284031215612e1357612e126120c0565b5b6000612e2184828501612de8565b91505092915050565b7f20596f757220416468616172206e6f7420766572696669656400000000000000600082015250565b6000612e60601983612190565b9150612e6b82612e2a565b602082019050919050565b60006020820190508181036000830152612e8f81612e53565b9050919050565b7f456d61696c20616c726561647920657869736974000000000000000000000000600082015250565b6000612ecc601483612190565b9150612ed782612e96565b602082019050919050565b60006020820190508181036000830152612efb81612ebf565b9050919050565b600081905092915050565b6000612f1882612185565b612f228185612f02565b9350612f328185602086016121a1565b80840191505092915050565b6000612f4a8285612f0d565b9150612f568284612f0d565b91508190509392505050565b7f4f6e6c79206f776e65722063616e2063616c6c20746869732066756e6374696f60008201527f6e00000000000000000000000000000000000000000000000000000000000000602082015250565b6000612fbe602183612190565b9150612fc982612f62565b604082019050919050565b60006020820190508181036000830152612fed81612fb1565b9050919050565b7f496e76616c696420757365722074797065000000000000000000000000000000600082015250565b600061302a601183612190565b915061303582612ff4565b602082019050919050565b600060208201905081810360008301526130598161301d565b9050919050565b60006040820190506130756000830185612492565b6130826020830184612a02565b9392505050565b7f54686973206120536f756c626f756e6420746f6b656e2e2049742063616e6e6f60008201527f74206265207472616e736665727265642e000000000000000000000000000000602082015250565b60006130e5603183612190565b91506130f082613089565b604082019050919050565b60006020820190508181036000830152613114816130d8565b9050919050565b600081519050919050565b600082825260208201905092915050565b60006131428261311b565b61314c8185613126565b935061315c8185602086016121a1565b613165816121cb565b840191505092915050565b600060808201905061318560008301876122cc565b61319260208301866122cc565b61319f6040830185612492565b81810360608301526131b18184613137565b905095945050505050565b6000815190506131cb816120f6565b92915050565b6000602082840312156131e7576131e66120c0565b5b60006131f5848285016131bc565b91505092915050565b7f4e487b7100000000000000000000000000000000000000000000000000000000600052601260045260246000fd5b600060408201905061324260008301856122cc565b61324f6020830184612492565b939250505056fea2646970667358221220eeae57cfe9cec0fc6b1e178addb3411ad0a174e6ae008f61e6fecb2bd49f2a9464736f6c63430008140033",
  "linkReferences": {},
  "deployedLinkReferences": {}
}